:100000000C9450000C9465000C9465000C946500F1
:100010000C9465000C9465000C9465000C946500CC
:100020000C9465000C9465000C9465000C946500BC
:100030000C9465000C9465000C9465000C946500AC
:100040000C9465000C9465000C9465000C9465009C
:100050000C946500084AD73B3BCE016E84BCBFFDC3
:10006000C12F3D6C74319ABD56833DDA3D00C77F88
:1000700011BED9E4BB4C3E916BAAAABE0000008021
:100080003F05A84CCDB2D44EB93836A9020C50B9B0
:10009000918688083CA6AAAA2ABE000000803F00DC
:1000A00011241FBECFE5D4E0DEBFCDBF11E0A0E636
:1000B000B0E0E4EAFAE102C005900D92A836B1077B
:1000C000D9F70E94D3030C94500D0C94000084B710
:1000D000806884BF84B7806884BF1ABA1BBA8FE176
:1000E00087BB18BA8FEF84BB15BA81BB12BA87E8F9
:1000F00086B90895805E87B9369A3699FECF0895FD
:10010000EF92FF920F931F939B01AC01C801B701BF
:100110000E9481070E94400B26EE3EE245E652E433
:100120000E9487061F910F91FF90EF900895EF9224
:10013000FF920F931F937A018B01CB01BA0120E04C
:1001400030E044EB52E40E945F08181614F485E096
:10015000CBC0C801B70120E030E04AEA52E40E9477
:100160005F08181614F480E1BFC0C801B70120E091
:1001700030E040EA52E40E945F08181614F485E16A
:10018000B3C0C801B70120E030E046E952E40E9464
:100190005F08181614F480E2A7C0C801B70120E078
:1001A00030E04CE852E40E945F08181614F485E22F
:1001B0009BC0C801B70120E030E042E852E40E9451
:1001C0005F08181614F480E38FC0C801B70120E05F
:1001D00030E040E752E40E945F08181614F485E30B
:1001E00083C0C801B70120E030E04CE552E40E9432
:1001F0005F08181614F480E477C0C801B70120E046
:1002000030E048E452E40E945F08181614F485E4D4
:100210006BC0C801B70120E030E044E352E40E9423
:100220005F08181614F480E55FC0C801B70120E02C
:1002300030E040E252E40E945F08181614F485E5AD
:1002400053C0C801B70120E030E04CE052E40E9406
:100250005F08181614F480E647C0C801B70120E013
:1002600030E040EF51E40E945F08181614F485E670
:100270003BC0C801B70120E030E048EC51E40E94E7
:100280005F08181614F480E72FC0C801B70120E0FA
:1002900030E040EA51E40E945F08181614F485E744
:1002A00023C0C801B70120E030E040E751E40E94DC
:1002B0005F08181614F480E817C0C801B70120E0E1
:1002C00030E040E251E40E945F08181614F485E81B
:1002D0000BC0C801B70120E030E040EA50E40E94C2
:1002E0005F0818161CF480E982BB01C012BA1F9186
:1002F0000F91FF90EF900895DF92EF92FF920F938E
:100300001F937B018C017F2D912F20E030E044EB87
:1003100052E40E948F0887FD0FC06E2D7F2D802F25
:10032000912F20E030E044EB52E40E9456067B011E
:100330008C01E0E9DE2ED9C06E2D7F2D802F912F0C
:1003400020E030E040EA52E40E948F0887FD0FC0B1
:100350006E2D7F2D802F912F20E030E040EA52E477
:100360000E9456067B018C0170E8D72EBEC06E2D10
:100370007F2D802F912F20E030E04CE852E40E9446
:100380008F0887FD0FC06E2D7F2D802F912F20E0CD
:1003900030E04CE852E40E9456067B018C0160E795
:1003A000D62EA3C06E2D7F2D802F912F20E030E020
:1003B00040E752E40E948F0887FD0FC06E2D7F2D0D
:1003C000802F912F20E030E040E752E40E94560653
:1003D0007B018C0150E6D52E88C06E2D7F2D802F9D
:1003E000912F20E030E048E452E40E948F0887FD1E
:1003F0000FC06E2D7F2D802F912F20E030E048E43C
:1004000052E40E9456067B018C0140E5D42E6DC05B
:100410006E2D7F2D802F912F20E030E040E252E4BE
:100420000E948F0887FD0FC06E2D7F2D802F912F8A
:1004300020E030E040E252E40E9456067B018C014D
:1004400030E4D32E52C06E2D7F2D802F912F20E0CF
:1004500030E040EF51E40E948F0887FD0FC06E2D01
:100460007F2D802F912F20E030E040EF51E40E945B
:1004700056067B018C0120E3D22E37C06E2D7F2DD6
:10048000802F912F20E030E040EA51E40E948F0855
:1004900087FD0FC06E2D7F2D802F912F20E030E043
:1004A00040EA51E40E9456067B018C0190E2D92E6D
:1004B0001CC06E2D7F2D802F912F20E030E040E278
:1004C00051E40E948F0887FD0FC06E2D7F2D802F75
:1004D000912F20E030E040E251E40E9456067B017B
:1004E0008C0180E1D82E01C0DD246E2D7F2D802F60
:1004F000912F20E030E040E151E40E948F0887FD19
:1005000003C08D2D875F85C06E2D7F2D802F912F8D
:1005100020E030E040E051E40E948F0887FD03C0F6
:100520008D2D885F76C06E2D7F2D802F912F20E03E
:1005300030E040EE50E40E948F0887FD03C08D2D0F
:10054000895F67C06E2D7F2D802F912F20E030E0D6
:1005500040EC50E40E948F0887FD03C08D2D8A5F18
:1005600058C06E2D7F2D802F912F20E030E040EA83
:1005700050E40E948F0887FD03C08D2D8B5F49C01A
:100580006E2D7F2D802F912F20E030E040E850E449
:100590000E948F0887FD03C08D2D8C5F3AC06E2DA1
:1005A0007F2D802F912F20E030E040E450E40E9426
:1005B0008F0887FD03C08D2D8D5F2BC06E2D7F2D85
:1005C000802F912F20E030E040E050E40E948F081F
:1005D00087FD03C08D2D8E5F1CC06E2D7F2D802F5B
:1005E000912F20E030E040E85FE30E948F0887FD14
:1005F00002C0D3940BC06E2D7F2D802F912F20E051
:1006000030E0A9010E948F0887FD02C0D5BA02C060
:100610008AEA85BB1F910F91FF90EF90DF900895BC
:100620008830910514F0C29A13C08730910511F4F7
:10063000C29A14C08630910511F4C29A15C0853053
:10064000910511F4C29A14C08430910519F4C2982E
:10065000C19A0BC08330910519F4C298C19A09C0A0
:100660008230910521F4C298C198C09A0895C29829
:10067000C198C09808952F923F924F925F926F92C7
:100680007F928F929F92AF92BF92CF92DF92EF9222
:10069000FF920F931F937B018C01CA01B9010E9445
:1006A0008706962E872E782E692E60E070E084EB08
:1006B00092E4A80197010E94560628E939EF4EE816
:1006C0005CE30E9487069B01AC010E9429060E9400
:1006D000060C5B016C019058D401F3012B2F3A2FCB
:1006E0004F2F5E2F0E948107F62E072F182FE92E1D
:1006F00020E030E040E850E40E9487061B012C0116
:10070000A4019301652F742F832F922F2BE734E1DF
:1007100040EC51E40E948706A60195010E948706DD
:100720009B01AC01C201B1010E9487062BE734E1B5
:1007300040EC52E40E9429060E94100C5B016C01FF
:100740006F2D702F812F9E2D2F2D302F412F5E2D3D
:100750000E9429069B01AC0160E070E080E89FE305
:100760000E9481077B018C01C601B5012DEC3CEC98
:100770004CE151E40E9456069B01AC01C801B7014F
:100780000E9487061F910F91FF90EF90DF90CF900E
:10079000BF90AF909F908F907F906F905F904F90A1
:1007A0003F902F9008952F923F924F925F926F92B9
:1007B0007F928F929F92AF92BF92CF92DF92EF92F1
:1007C000FF920F931F93DF93CF93CDB7DEB766975A
:1007D0000FB6F894DEBF0FBECDBF0E946700FF24A6
:1007E000EE249924442400E010E0332422241D8ABE
:1007F0001E8A5E010894A11CB11CCC24DD24C60114
:100800000E947A0065B170E061557040882777FDDD
:100810008095982F0E94BF08F50161937193819391
:1008200091935F010894C11CD11CF6E0CF16D1044E
:1008300031F76D857E858F85988920E030E042EA2A
:1008400052E40E942906862E772E682E592E862F76
:10085000972DA62DB52D8D879E87AF87B88B69897B
:100860007A898B899C8920E030E042EA52E40E9438
:100870002906262F372F482F592F298B3A8B4B8B40
:100880005C8BA1E0CA2ED12C20E030E044E053E4A0
:100890000E945F08181614F0CC24DD24F1E0AF2E7E
:1008A000B12C682D772D862D952D20E030E044E089
:1008B00053E40E945F08181614F0AA24BB2481E0B8
:1008C000A816B104D9F4C114D10409F042C0698555
:1008D0007A858B859C8529813A814B815C810E9438
:1008E00081070E94400B26EE3EE245E652E40E945C
:1008F0008706362E272E8D8B9E8B2EC0C114D104D9
:1009000041F5A701652F7E2D892D942D20E030E043
:1009100040E051E40E942F08882331F40F5F1F4FFD
:10092000FF24EE2499244424EDEAF0E63197F1F710
:1009300000C00000A701652F7E2D892D942D20E099
:1009400030E040E85FE30E942906F62EE72E982E5D
:10095000492EC8010E94100381E090E0F1013D8919
:100960002E894F2F522D632F722F0E949700B801AE
:10097000882777FD8095982F0E94BF085B016C0146
:10098000A701652F7E2D892D942D20E030E040E2D7
:1009900051E40E9481079B01AC01C601B5010E9490
:1009A00029069B01AC01D101FD89EE896B2F722DC7
:1009B0008F2F9E2F0E943B030E947C011ACFA0E044
:1009C000B0E0E5EEF4E00C940D0BFC01EA0180814F
:1009D000823008F438C1DB019C91923008F430C1B8
:1009E000843059F4943009F02EC1918111968C9184
:1009F0001197981709F021C126C1943009F420C13C
:100A00009230B1F4823009F01EC1CA01AF0128E072
:100A1000DA010D90AD01DC010D92CD012150C1F73D
:100A2000DB0111968C9111979181892389830AC1E9
:100A3000823009F405C1C280D380DB0112966D902B
:100A40007C90139724813581468157811496ED90CF
:100A5000FD900D911C911797C601861997095C01AD
:100A600097FF04C0AA24BB24A81AB90AB0E2AB16A7
:100A7000B1040CF061C0181619066CF53701480175
:100A80000A2C04C096948794779467940A94D2F7BA
:100A900081E090E0A0E0B0E00A2C04C0880F991F2C
:100AA000AA1FBB1F0A94D2F70197A109B1098E2191
:100AB0009F21A023B123EE24FF248701E394009714
:100AC000A105B10519F4EE24FF248701E628F728D3
:100AD000082919293CC00097D1F1CA0CDB1C390147
:100AE0004A010A2C04C096948794779467940A94D8
:100AF000D2F781E090E0A0E0B0E00A2C04C0880FBB
:100B0000991FAA1FBB1F0A94D2F70197A109B10927
:100B100082239323A423B52321E030E040E050E07A
:100B20000097A105B10519F420E030E0A9012629BC
:100B30003729482959290BC06C147D0424F4EE246C
:100B4000FF24870104C0630120E030E0A901818116
:100B5000FB019181891709F445C0882349F0D80128
:100B6000C701821B930BA40BB50B9C01AD0104C004
:100B70002E193F09400B510B57FD04C01982DB822F
:100B8000CA820BC081E08983DB82CA82509540957E
:100B9000309521953F4F4F4F5F4F2C833D834E83C0
:100BA0005F830DC0880F991FAA1FBB1F8C839D8375
:100BB000AE83BF838A819B8101979B838A838C81CB
:100BC0009D81AE81BF819C01AD01215030404040EC
:100BD00050402F3FEFEF3E07EFEF4E07EFE35E078A
:100BE00008F30BC08983DB82CA822E0D3F1D401F94
:100BF000511F2C833D834E835F8383E088832C8148
:100C00003D814E815F8157FF1DC0DA01C9018170AE
:100C10009070A070B0705695479537952795822BA8
:100C2000932BA42BB52B8C839D83AE83BF838A81AA
:100C30009B8101969B838A8305C0E0E6F0E003C0B8
:100C4000FB0101C0FE01CF01CDB7DEB7EEE00C9491
:100C5000290BA0E2B0E0EFE2F6E00C94150B6983FB
:100C60007A838B839C832D833E834F83588789E0CF
:100C7000E82EF12CEC0EFD1ECE010196B7010E946C
:100C8000470A8E010F5E1F4FCE010596B8010E94E4
:100C9000470AC701B801AE01475E5F4F0E94DF04FB
:100CA0000E947909A096E6E00C94310BA0E2B0E036
:100CB000ECE5F6E00C94150B69837A838B839C83B7
:100CC0002D833E834F8358878E01075F1F4FCE01D0
:100CD0000196B8010E94470A91E1E92EF12CEC0E31
:100CE000FD1ECE010596B7010E94470A8A8991E050
:100CF00089278A8BC801B701AE01475E5F4F0E940A
:100D0000DF040E947909A096E6E00C94310BA0E282
:100D1000B0E0EDE8F6E00C94090B69837A838B83ED
:100D20009C832D833E834F835887CE010196BE015D
:100D3000675F7F4F0E94470ACE010596BE016F5E36
:100D40007F4F0E94470A9985923078F089898230D6
:100D5000C0F0943019F4823041F4CBC0843019F4DF
:100D6000923079F4C6C0923051F481E02A859A8994
:100D7000291709F480E08A87CE010996BCC0823029
:100D800051F481E02A859A89291709F480E08A8B39
:100D9000CE014196B0C06D847E848F849888ED88A2
:100DA000FE880F89188DE0E2F0E080E090E0DC0141
:100DB000AA24BB24650120E030E0A901B3016170E1
:100DC000707061157105D1F02E0D3F1D401F511F30
:100DD00015012601280E391E4A1E5B1E81E090E097
:100DE000A0E0B0E02E153F054007510718F080E065
:100DF00090E0DC01820D931DA41DB51DAA0CBB1C47
:100E0000CC1CDD1C17FF09C061E0262E312C412CC3
:100E1000512CA228B328C428D528319749F0EE0CCC
:100E2000FF1C001F111F9694879477946794C6CF78
:100E30006B897C89EB85FC856E0F7F1F6E5F7F4F12
:100E40007C8F6B8F61E0EA857A89E71709F460E0AF
:100E50006A8F6B8D7C8D10C0FC01E170F070309753
:100E600029F056954795379527955068B695A795DB
:100E7000979587956F5F7F4FB7FDEECF0CC0880FBA
:100E8000991FAA1FBB1F57FD8160220F331F441FEC
:100E9000551F615070408030E0E09E07E0E0AE07F3
:100EA000E0E4BE0760F36B8F7C8F6FE7E62EF12CDA
:100EB000012D112DE822F9220A231B2360E4E616F6
:100EC000F1040105110561F487FD0AC02115310502
:100ED0004105510529F0805C9F4FAF4FBF4F80788F
:100EE0008D8F9E8FAF8FB8A383E0898FCE014996F7
:100EF00002C080E690E00E947909A096E2E10C949D
:100F0000250BA8E1B0E0E7E8F7E00C94110B69834A
:100F10007A838B839C832D833E834F8358878E01F6
:100F2000075F1F4FCE010196B8010E94470A81E179
:100F3000E82EF12CEC0EFD1ECE010596B7010E94A5
:100F4000470A9985923008F483C08989823008F471
:100F50007BC02A853A8923272A87943011F0923062
:100F600021F4981709F06CC071C0843039F41D86E3
:100F70001E861F86188A1C861B866AC0823019F45A
:100F800084E0898765C08B859C852B893C89821B81
:100F9000930B9C878B872D853E854F855889ED88DF
:100FA000FE880F89188D2E153F054007510738F42C
:100FB000220F331F441F551F01979C878B876FE1BA
:100FC00070E0A12CB12CC12CA0E4DA2E80E090E0DE
:100FD000DC012E153F054007510740F08A299B2967
:100FE000AC29BD292E193F09400B510BD694C7944B
:100FF000B794A794220F331F441F551F61507040B0
:1010000041F76FE7E62EF12C012D112DE822F92290
:101010000A231B2360E4E616F1040105110561F4BF
:1010200087FD0AC0211531054105510529F0805C75
:101030009F4FAF4FBF4F80788D879E87AF87B88B0C
:101040008E01075F1F4F04C0870102C000E610E059
:10105000C8010E9479096896EAE00C942D0BA8E17A
:10106000B0E0E5E3F8E00C94150B69837A838B8399
:101070009C832D833E834F8358878E01075F1F4FCC
:10108000CE010196B8010E94470A81E1E82EF12CB9
:10109000EC0EFD1ECE010596B7010E94470A898518
:1010A000823040F08989823028F0C801B7010E945F
:1010B000B00A01C081E06896E6E00C94310BA8E12B
:1010C000B0E0E5E6F8E00C94150B69837A838B8336
:1010D0009C832D833E834F8358878E01075F1F4F6C
:1010E000CE010196B8010E94470A81E1E82EF12C59
:1010F000EC0EFD1ECE010596B7010E94470A8985B8
:10110000823040F08989823028F0C801B7010E94FE
:10111000B00A01C08FEF6896E6E00C94310BA8E1AD
:10112000B0E0E5E9F8E00C94150B69837A838B83D2
:101130009C832D833E834F8358878E01075F1F4F0B
:10114000CE010196B8010E94470A81E1E82EF12CF8
:10115000EC0EFD1ECE010596B7010E94470A898557
:10116000823040F08989823028F0C801B7010E949E
:10117000B00A01C08FEF6896E6E00C94310BA8E04E
:10118000B0E0E5ECF8E00C94150B7B018C0183E0FA
:101190008983D801C7018827B7FD83959927AA2796
:1011A000BB27282F8A83E114F1040105110519F4E6
:1011B00082E0898337C08EE190E09C838B83222379
:1011C00089F080E0E81680E0F80680E0080780E813
:1011D000180769F110950095F094E094E11CF11C5A
:1011E000011D111DED82FE820F831887C801B70112
:1011F0000E941F099C01215030401216130694F4DE
:10120000022E04C0EE0CFF1C001F111F0A94D2F71F
:10121000ED82FE820F8318878EE190E0821B930B94
:101220009C838B83CE0101960E94790904C060E003
:1012300070E080E09FEC2896E6E00C94310BAF92D2
:10124000BF92CF92DF92EF92FF920F931F937B0199
:101250008C0180E0E81680E0F80681E0080780E075
:10126000180758F4EFEFEE16F1040105110509F027
:1012700090F480E090E0DC0117C0F0E0EF16F0E0C1
:10128000FF06F0E00F07F1E01F0750F480E190E067
:10129000A0E0B0E009C088E090E0A0E0B0E004C0C9
:1012A00088E190E0A0E0B0E020E230E040E050E0F3
:1012B000281B390B4A0B5B0B5701680104C0D694FD
:1012C000C794B794A7948A95D2F7D601C5018859D7
:1012D0009F4FFC018081281B310941095109C90137
:1012E0001F910F91FF90EF90DF90CF90BF90AF9044
:1012F0000895EF92FF920F931F93CF93DF93FC011A
:10130000248135814681578161818081823020F43A
:101310004061EFEFF0E0A3C0843009F49BC082305D
:1013200009F492C0211531054105510509F48FC01A
:101330000280F381E02D8FEFE238F8070CF05AC0FD
:10134000C2E8DFEFCE1BDF0BCA31D1056CF57901A6
:101350008A010C2E04C016950795F794E7940A9419
:10136000D2F781E090E0A0E0B0E00C2E04C0880F3E
:10137000991FAA1FBB1F0A94D2F70197A109B109AF
:1013800082239323A423B52321E030E040E050E002
:101390000097A105B10519F420E030E0A9012E293C
:1013A0003F29402B512B03C020E030E0A901DA0196
:1013B000C9018F779070A070B07080349105A1053D
:1013C000B10539F427FF09C0205C3F4F4F4F5F4FF5
:1013D00004C0215C3F4F4F4F5F4FE1E0F0E0203011
:1013E00080E0380780E0480780E4580728F5E0E00F
:1013F000F0E022C0E038F1056CF5E158FF4FDA016A
:10140000C9018F779070A070B07080349105A105EC
:10141000B10539F427FF09C0205C3F4F4F4F5F4FA4
:1014200004C0215C3F4F4F4F5F4F57FF05C056959B
:10143000479537952795319687E056954795379587
:1014400027958A95D1F70BC0E0E0F0E005C0E0E019
:10145000F0E005C0EFEFF0E020E030E0A9018E2FD2
:10146000879588278795942F9F7767956627679537
:10147000E695E22EA92FA82BFE2FF62B622F732FB5
:101480008A2F9F2FCDB7DEB7E6E00C94310BDC013D
:10149000FB012C9111963C91119712968C91129709
:1014A000482F4F7750E0982F991F9927991F13962F
:1014B0006C911397862F880F892B90E0661F662703
:1014C000661F6183009739F52115310541055105E6
:1014D00011F482E029C082E89FEF9383828367E062
:1014E000220F331F441F551F6A95D1F783E0808375
:1014F00009C0220F331F441F551F8281938101971A
:1015000093838283203080E0380780E0480780E4BE
:10151000580778F320C08F3F910579F421153105E4
:101520004105510519F484E08083089544FF03C008
:1015300081E0808310C010820EC08F57904093834B
:10154000828383E0808387E0220F331F441F551F6F
:101550008A95D1F750642483358346835783089551
:10156000FC01DB019081923008F449C08C918230FB
:1015700008F445C0943051F461818430B1F511967E
:101580002C91119730E0261B310941C0843021F0A5
:10159000923041F48230B1F111968C9111978823E9
:1015A000A1F12DC06181823001F111968C911197CA
:1015B0006817D9F42281338112968D919C911397EB
:1015C0008217930794F028173907BCF024813581DE
:1015D0004681578114968D919D910D90BC91A02DBF
:1015E00082179307A407B50718F4662341F00DC0CE
:1015F000281739074A075B0728F4662331F021E0F2
:1016000030E005C020E030E002C02FEF3FEFC9011D
:1016100008952F923F924F925F926F927F928F9296
:101620009F92AF92BF92CF92DF92EF92FF920F9371
:101630001F93CF93DF93CDB7DEB7CA1BDB0B0FB67B
:10164000F894DEBF0FBECDBF09942A883988488838
:101650005F846E847D848C849B84AA84B984C884CE
:10166000DF80EE80FD800C811B81AA81B981CE0FC5
:10167000D11D0FB6F894DEBF0FBECDBFED010895AA
:10168000DF93DD27B92FBF7740E85FE31616170613
:1016900048075B0710F4D92F51D09F938F937F9306
:1016A0006F93FCD0E4E5F0E013D037D02F913F9159
:1016B0004F915F9154D0DD2349F09058A2EA2AED72
:1016C0003FE049EC5FE3D0785D27F8D0DF9125C09B
:1016D000DF93CF931F930F93FF92EF92DF927B01E3
:1016E0008C01689405C0DA2EEF0139D0FE01E89430
:1016F000A5912591359145915591AEF3EF01DED03D
:10170000FE019701A801DA9479F7DF90EF90FF903E
:101710000F911F91CF91DF910895092E0394000C32
:1017200011F4882352F0BB0F40F4BF2B11F460FF7B
:1017300004C06F5F7F4F8F4F9F4F08959B01AC0197
:1017400060E070E080E89FE3DCCB29D128F02ED167
:1017500018F0952309F005C118C111248AC166D17A
:10176000A0F3959FD1F3950F50E0551F629FF001B4
:10177000729FBB27F00DB11D639FAA27F00DB11D0D
:10178000AA1F649F6627B00DA11D661F829F222796
:10179000B00DA11D621F739FB00DA11D621F839F1D
:1017A000A00D611D221F749F3327A00D611D231FF3
:1017B000849F600D211D822F762F6A2F11249F5741
:1017C00050408AF0E1F088234AF0EE0FFF1FBB1F64
:1017D000661F771F881F91505040A9F79E3F510503
:1017E00070F0BFC046C15F3FECF3983EDCF38695D6
:1017F00077956795B795F795E7959F5FC1F7FE2BAE
:10180000880F911D9695879597F908959F93D6D047
:101810000F9007FCEE5FF9C011F40EF4B6C0A7C03C
:101820000DD1D0F39923D9F3CEF39F57550B87FFF2
:10183000AFD00024A0E640EA9001805856959795D5
:1018400028F4805C660F771F881F20F02617370763
:10185000480730F4621B730B840B202931294A2B73
:10186000A69517940794202531254A2758F7660F27
:10187000771F881F20F026173707480730F4620BC0
:10188000730B840B200D311D411DA09581F7B9010B
:10189000842F9158880F9695879508959B01AC01E8
:1018A00036CA7DD030F082D020F031F49F3F11F461
:1018B0001EF46BC00EF4E095E7FB53C0E92FB6D0E1
:1018C00080F3BA17620773078407950718F071F45D
:1018D0009EF5CEC00EF4E0950B2EBA2FA02D0B0175
:1018E000B90190010C01CA01A0011124FF27591B65
:1018F00099F0593F50F4503E68F11A16F040A22F6B
:10190000232F342F4427585FF3CF469537952795DB
:10191000A795F0405395C9F77EF41F16BA0B620BDA
:10192000730B840BBAF09150A1F0FF0FBB1F661F21
:10193000771F881FC2F70EC0BA0F621F731F841F64
:1019400048F4879577956795B795F7959E3F08F08A
:10195000B3CF9395880F08F09927EE0F9795879549
:10196000089597F99F6780E870E060E008959F3FD1
:1019700031F0915020F4879577956795B795880F4A
:10198000911D9695879597F908959FEF80EC08959E
:1019900091505040660F771F881FD2F7089500249A
:1019A0000A941616170618060906089500240A94C4
:1019B00012161306140605060895E7CF3FD0E8F384
:1019C000E894E0E0BB279F57F0F02AED3FE049ECB8
:1019D00006C0EE0FBB0F661F771F881F28F0B23AB4
:1019E00062077307840728F0B25A620B730B840BEB
:1019F000E3959A9572F7803830F49A95BB0F661F7D
:101A0000771F881FD2F79048B4CFEF93E0FF06C04E
:101A1000A2EA2AED3FE049EC5FEB50DF7EDE0F905B
:101A2000039401FC9058E1E8F0E029C057FD90587C
:101A3000440F551F59F05F3F71F04795880F97FB92
:101A4000991F61F09F3F79F087950895121613064C
:101A50001406551FF2CF4695F1DF08C0161617067B
:101A60001806991FF1CF86957105610508940895B0
:101A7000E894BB2766277727CB0197F908959F93B2
:101A80008F937F936F93FF93EF939B01AC013FD9AB
:101A9000EF91FF911DDE2F913F914F915F9137C9DB
:041AA000F894FFCFE8
:101AA4000000000000000000000102020303030321
:101AB40004040404040404040505050505050505DA
:101AC40005050505050505050606060606060606BA
:101AD40006060606060606060606060606060606A2
:101AE400060606060606060607070707070707078A
:101AF4000707070707070707070707070707070772
:101B04000707070707070707070707070707070761
:101B14000707070707070707070707070707070751
:101B24000707070707070707080808080808080839
:101B34000808080808080808080808080808080821
:101B44000808080808080808080808080808080811
:101B54000808080808080808080808080808080801
:101B640008080808080808080808080808080808F1
:101B740008080808080808080808080808080808E1
:101B840008080808080808080808080808080808D1
:101B940008080808080808080808080808080808C1
:081BA4000808080808080808F9
:00000001FF
