:100000000C9441000C9456000C9456000C9456002D
:100010000C9456000C9456000C9456000C94560008
:100020000C9456000C9456000C9456000C945600F8
:100030000C9456000C9456000C9456000C945600E8
:100040000C9456000C9456000C9456000C945600D8
:100050000C945600084AD73B3BCE016E84BCBFFDD2
:10006000C12F3D6C74319ABD56833DDA3D00C77F88
:1000700011BED9E4BB4C3E916BAAAABE0000008021
:100080003F0011241FBECFE5D4E0DEBFCDBF11E09D
:10009000A0E6B0E0ECE5F3E102C005900D92A836D1
:1000A000B107D9F70E9469010C94AC090C940000C7
:1000B0001ABA1BBA17BA18BA8FEF84BB15BA81BB2C
:1000C00012BA87E886B90895805E87B9369A36995C
:1000D000FECF08950E94B4040E94430826EE3EE23B
:1000E00045E652E40E94BA030895EF92FF920F93FF
:1000F0001F939B01AC01C801B7010E94B4040E9488
:10010000430826EE3EE245E652E40E94BA031F9100
:100110000F91FF90EF900895EF92FF920F931F932E
:10012000CA01B901A80197010E94B4040E944308C2
:1001300026EE3EE245E652E40E94BA031F910F917B
:10014000FF90EF900895009731F46130710529F424
:100150004F5F5F4F02C040E050E0CA010895EF9248
:10016000FF920F931F937A018B01CB01BA0120E01C
:1001700030E044EB52E40E949205181614F4939A6E
:1001800068C0C801B70120E030E040EA52E40E94B4
:100190009205181614F4939A69C0C801B70120E0BB
:1001A00030E04CE852E40E94920518162CF4939A21
:1001B0009298919890985DC0C801B70120E030E016
:1001C00040E752E40E94920518161CF49398929A04
:1001D00033C0C801B70120E030E048E452E40E9497
:1001E000920518161CF49398929A34C0C801B7016E
:1001F00020E030E040E252E40E94920518161CF420
:100200009398929A34C0C801B70120E030E040EFE3
:1002100051E40E94920518161CF49398929AC9CF43
:10022000C801B70120E030E040EA51E40E949205A5
:10023000181624F493989298919A1AC0C801B7019D
:1002400020E030E040E251E40E949205181624F4C8
:1002500093989298919AAECFC801B70120E030E010
:10026000A9010E949205181624F4939892989198E7
:10027000909A1F910F91FF90EF900895883091050B
:1002800014F0AA9A13C08730910511F4AA9A14C0E9
:100290008630910511F4AA9A15C08530910511F4A4
:1002A000AA9A14C08430910519F4AA98A99A0BC08F
:1002B0008330910519F4AA98A99A09C08230910552
:1002C00021F4AA98A998A89A0895AA98A998A898F4
:1002D00008956F927F928F929F92AF92BF92CF922A
:1002E000DF92EF92FF920F931F93DF93CF93CDB7DF
:1002F000DEB764970FB6F894DEBF0FBECDBF0E9485
:100300005800EE24FF24DD24CC24882499243E01C7
:100310000894611C711C530100E010E0C8010E94A8
:10032000640065B170E061557040882777FD809565
:10033000982F0E94C205F501619371938193919367
:100340005F010F5F1F4F0630110541F76D857E85F8
:100350008F85988920E030E042EA52E40E945C03F5
:10036000062FA72E182FB92E862F9A2DA12FBB2D21
:100370008D879E87AF87B88B69857A858B859C85AD
:1003800029813A814B815C810E94B4040E94430818
:1003900026EE3EE245E652E40E94BA03AB01BC0100
:1003A00081E090E00E94AF00602F7A2D812F9B2D7D
:1003B00020E030E044E053E40E94920518160CF06F
:1003C000AACF96016E2D7F2D832F9C2D20E030E04B
:1003D00040E251E40E946205882339F40894811CAC
:1003E000911CEE24FF24DD24CC2487EA91E60197BA
:1003F000F1F700C0000096016E2D7F2D832F9C2DFC
:1004000020E030E040E85FE30E945C037B01D82EEF
:10041000C92EC4010E943E017ECF60E070E080E002
:1004200090E80895A0E0B0E0E8E1F2E00C94100854
:10043000FC01EA018081823008F438C1DB019C9123
:10044000923008F430C1843059F4943009F02EC150
:10045000918111968C911197981709F021C126C1AD
:10046000943009F420C19230B1F4823009F01EC1F9
:10047000CA01AF0128E0DA010D90AD01DC010D9257
:10048000CD012150C1F7DB0111968C91119791811B
:10049000892389830AC1823009F405C1C280D380CF
:1004A000DB0112966D907C901397248135814681F3
:1004B00057811496ED90FD900D911C911797C601F0
:1004C000861997095C0197FF04C0AA24BB24A81AC7
:1004D000B90AB0E2AB16B1040CF061C018161906E7
:1004E0006CF5370148010A2C04C0969487947794E0
:1004F00067940A94D2F781E090E0A0E0B0E00A2C83
:1005000004C0880F991FAA1FBB1F0A94D2F7019736
:10051000A109B1098E219F21A023B123EE24FF243C
:100520008701E3940097A105B10519F4EE24FF2497
:100530008701E628F728082919293CC00097D1F13E
:10054000CA0CDB1C39014A010A2C04C0969487941A
:10055000779467940A94D2F781E090E0A0E0B0E04D
:100560000A2C04C0880F991FAA1FBB1F0A94D2F738
:100570000197A109B10982239323A423B52321E084
:1005800030E040E050E00097A105B10519F420E00B
:1005900030E0A90126293729482959290BC06C14B4
:1005A0007D0424F4EE24FF24870104C0630120E0CD
:1005B00030E0A9018181FB019181891709F445C0CF
:1005C000882349F0D801C701821B930BA40BB50BFC
:1005D0009C01AD0104C02E193F09400B510B57FD82
:1005E00004C01982DB82CA820BC081E08983DB826E
:1005F000CA8250954095309521953F4F4F4F5F4FA0
:100600002C833D834E835F830DC0880F991FAA1FE3
:10061000BB1F8C839D83AE83BF838A819B8101979F
:100620009B838A838C819D81AE81BF819C01AD01BA
:1006300021503040404050402F3FEFEF3E07EFEF5A
:100640004E07EFE35E0708F30BC08983DB82CA82A3
:100650002E0D3F1D401F511F2C833D834E835F8312
:1006600083E088832C813D814E815F8157FF1DC0CF
:10067000DA01C90181709070A070B07056954795ED
:1006800037952795822B932BA42BB52B8C839D8399
:10069000AE83BF838A819B8101969B838A8305C039
:1006A000E0E6F0E003C0FB0101C0FE01CF01CDB7E1
:1006B000DEB7EEE00C942C08A0E2B0E0E2E6F3E056
:1006C0000C94180869837A838B839C832D833E83E3
:1006D0004F83588789E0E82EF12CEC0EFD1ECE01E9
:1006E0000196B7010E944A078E010F5E1F4FCE018F
:1006F0000596B8010E944A07C701B801AE01475EDE
:100700005F4F0E9412020E947C06A096E6E00C94C5
:100710003408A0E2B0E0EFE8F3E00C941808698335
:100720007A838B839C832D833E834F8358878E01EE
:10073000075F1F4FCE010196B8010E944A0791E161
:10074000E92EF12CEC0EFD1ECE010596B7010E949C
:100750004A078A8991E089278A8BC801B701AE01CF
:10076000475E5F4F0E9412020E947C06A096E6E060
:100770000C943408A0E2B0E0E0ECF3E00C940C0838
:1007800069837A838B839C832D833E834F83588731
:10079000CE010196BE01675F7F4F0E944A07CE01DE
:1007A0000596BE016F5E7F4F0E944A079985923081
:1007B00078F089898230C0F0943019F4823041F4A5
:1007C000CBC0843019F4923079F4C6C0923051F421
:1007D00081E02A859A89291709F480E08A87CE0169
:1007E0000996BCC0823051F481E02A859A89291784
:1007F00009F480E08A8BCE014196B0C06D847E847E
:100800008F849888ED88FE880F89188DE0E2F0E0EB
:1008100080E090E0DC01AA24BB24650120E030E008
:10082000A901B3016170707061157105D1F02E0DD1
:100830003F1D401F511F15012601280E391E4A1E5B
:100840005B1E81E090E0A0E0B0E02E153F05400780
:10085000510718F080E090E0DC01820D931DA41D8B
:10086000B51DAA0CBB1CCC1CDD1C17FF09C061E028
:10087000262E312C412C512CA228B328C428D5284F
:10088000319749F0EE0CFF1C001F111F96948794BE
:1008900077946794C6CF6B897C89EB85FC856E0F56
:1008A0007F1F6E5F7F4F7C8F6B8F61E0EA857A8957
:1008B000E71709F460E06A8F6B8D7C8D10C0FC0136
:1008C000E170F070309729F0569547953795279548
:1008D0005068B695A795979587956F5F7F4FB7FD41
:1008E000EECF0CC0880F991FAA1FBB1F57FD816058
:1008F000220F331F441F551F615070408030E0E0CD
:100900009E07E0E0AE07E0E4BE0760F36B8F7C8FEC
:100910006FE7E62EF12C012D112DE822F9220A2392
:100920001B2360E4E616F1040105110561F487FD5F
:100930000AC0211531054105510529F0805C9F4F02
:10094000AF4FBF4F80788D8F9E8FAF8FB8A383E05E
:10095000898FCE01499602C080E690E00E947C0615
:10096000A096E2E10C942808A8E1B0E0EAEBF4E0FC
:100970000C94140869837A838B839C832D833E8334
:100980004F8358878E01075F1F4FCE010196B80134
:100990000E944A0781E1E82EF12CEC0EFD1ECE01EB
:1009A0000596B7010E944A079985923008F483C0E2
:1009B0008989823008F47BC02A853A8923272A87CF
:1009C000943011F0923021F4981709F06CC071C086
:1009D000843039F41D861E861F86188A1C861B8665
:1009E0006AC0823019F484E0898765C08B859C8554
:1009F0002B893C89821B930B9C878B872D853E8599
:100A00004F855889ED88FE880F89188D2E153F0572
:100A10004007510738F4220F331F441F551F019719
:100A20009C878B876FE170E0A12CB12CC12CA0E4D6
:100A3000DA2E80E090E0DC012E153F0540075107DB
:100A400040F08A299B29AC29BD292E193F09400B6A
:100A5000510BD694C794B794A794220F331F441F09
:100A6000551F6150704041F76FE7E62EF12C012DC4
:100A7000112DE822F9220A231B2360E4E616F10473
:100A80000105110561F487FD0AC0211531054105F5
:100A9000510529F0805C9F4FAF4FBF4F80788D8705
:100AA0009E87AF87B88B8E01075F1F4F04C08701F9
:100AB00002C000E610E0C8010E947C066896EAE0E9
:100AC0000C943008A8E1B0E0E8E6F5E00C941808D2
:100AD00069837A838B839C832D833E834F835887DE
:100AE0008E01075F1F4FCE010196B8010E944A0791
:100AF00081E1E82EF12CEC0EFD1ECE010596B7012A
:100B00000E944A078985823040F08989823028F026
:100B1000C801B7010E94B30701C081E06896E6E012
:100B20000C943408A8E1B0E0E8E9F5E00C9418086A
:100B300069837A838B839C832D833E834F8358877D
:100B40008E01075F1F4FCE010196B8010E944A0730
:100B500081E1E82EF12CEC0EFD1ECE010596B701C9
:100B60000E944A078985823040F08989823028F0C6
:100B7000C801B7010E94B30701C08FEF6896E6E095
:100B80000C943408A8E0B0E0E8ECF5E00C94180808
:100B90007B018C0183E08983D801C7018827B7FDD9
:100BA00083959927AA27BB27282F8A83E114F1046C
:100BB0000105110519F482E0898337C08EE190E0C8
:100BC0009C838B83222389F080E0E81680E0F8067E
:100BD00080E0080780E8180769F110950095F09407
:100BE000E094E11CF11C011D111DED82FE820F83BA
:100BF0001887C801B7010E9422069C01215030408D
:100C00001216130694F4022E04C0EE0CFF1C001FF3
:100C1000111F0A94D2F7ED82FE820F8318878EE1AE
:100C200090E0821B930B9C838B83CE0101960E94E4
:100C30007C0604C060E070E080E09FEC2896E6E06F
:100C40000C943408AF92BF92CF92DF92EF92FF9252
:100C50000F931F937B018C0180E0E81680E0F8067B
:100C600081E0080780E0180758F4EFEFEE16F10472
:100C70000105110509F090F480E090E0DC0117C057
:100C8000F0E0EF16F0E0FF06F0E00F07F1E01F07DD
:100C900050F480E190E0A0E0B0E009C088E090E08E
:100CA000A0E0B0E004C088E190E0A0E0B0E020E285
:100CB00030E040E050E0281B390B4A0B5B0B57013A
:100CC000680104C0D694C794B794A7948A95D2F7C4
:100CD000D601C50188599F4FFC018081281B31092D
:100CE00041095109C9011F910F91FF90EF90DF90C9
:100CF000CF90BF90AF900895EF92FF920F931F9304
:100D0000CF93DF93FC012481358146815781618136
:100D10008081823020F44061EFEFF0E0A3C08430A6
:100D200009F49BC0823009F492C0211531054105B8
:100D3000510509F48FC00280F381E02D8FEFE23876
:100D4000F8070CF05AC0C2E8DFEFCE1BDF0BCA3148
:100D5000D1056CF579018A010C2E04C01695079512
:100D6000F794E7940A94D2F781E090E0A0E0B0E035
:100D70000C2E04C0880F991FAA1FBB1F0A94D2F71C
:100D80000197A109B10982239323A423B52321E06C
:100D900030E040E050E00097A105B10519F420E0F3
:100DA00030E0A9012E293F29402B512B03C020E020
:100DB00030E0A901DA01C9018F779070A070B0709E
:100DC00080349105A105B10539F427FF09C0205CE5
:100DD0003F4F4F4F5F4F04C0215C3F4F4F4F5F4F1E
:100DE000E1E0F0E0203080E0380780E0480780E470
:100DF000580728F5E0E0F0E022C0E038F1056CF596
:100E0000E158FF4FDA01C9018F779070A070B07080
:100E100080349105A105B10539F427FF09C0205C94
:100E20003F4F4F4F5F4F04C0215C3F4F4F4F5F4FCD
:100E300057FF05C05695479537952795319687E01A
:100E400056954795379527958A95D1F70BC0E0E0E1
:100E5000F0E005C0E0E0F0E005C0EFEFF0E020E0FA
:100E600030E0A9018E2F879588278795942F9F774B
:100E7000679566276795E695E22EA92FA82BFE2F8A
:100E8000F62B622F732F8A2F9F2FCDB7DEB7E6E0A8
:100E90000C943408DC01FB012C9111963C911197C4
:100EA00012968C911297482F4F7750E0982F991FE8
:100EB0009927991F13966C911397862F880F892B6A
:100EC00090E0661F6627661F6183009739F521153C
:100ED00031054105510511F482E029C082E89FEFF8
:100EE0009383828367E0220F331F441F551F6A9547
:100EF000D1F783E0808309C0220F331F441F551FA1
:100F000082819381019793838283203080E0380728
:100F100080E0480780E4580778F320C08F3F9105B0
:100F200079F4211531054105510519F484E08083D8
:100F3000089544FF03C081E0808310C010820EC07A
:100F40008F5790409383828383E0808387E0220FD2
:100F5000331F441F551F8A95D1F75064248335836E
:100F6000468357830895FC01DB019081923008F499
:100F700049C08C91823008F445C0943051F46181AD
:100F80008430B1F511962C91119730E0261B310970
:100F900041C0843021F0923041F48230B1F1119699
:100FA0008C9111978823A1F12DC06181823001F1CC
:100FB00011968C9111976817D9F42281338112967A
:100FC0008D919C9113978217930794F028173907F6
:100FD000BCF0248135814681578114968D919D9175
:100FE0000D90BC91A02D82179307A407B50718F4A4
:100FF000662341F00DC0281739074A075B0728F41C
:10100000662331F021E030E005C020E030E002C08E
:101010002FEF3FEFC90108952F923F924F925F92B9
:101020006F927F928F929F92AF92BF92CF92DF92F8
:10103000EF92FF920F931F93CF93DF93CDB7DEB75D
:10104000CA1BDB0B0FB6F894DEBF0FBECDBF0994F1
:101050002A88398848885F846E847D848C849B8448
:10106000AA84B984C884DF80EE80FD800C811B8156
:10107000AA81B981CE0FD11D0FB6F894DEBF0FBE85
:10108000CDBFED010895DF93DD27B92FBF7740E88D
:101090005FE31616170648075B0710F4D92F51D0E7
:1010A0009F938F937F936F93B4D0E4E5F0E013D0D8
:1010B00037D02F913F914F915F9154D0DD2349F06C
:1010C0009058A2EA2AED3FE049EC5FE3D0785D2733
:1010D000B0D0DF9125C0DF93CF931F930F93FF9282
:1010E000EF92DF927B018C01689405C0DA2EEF014C
:1010F00039D0FE01E894A5912591359145915591FE
:10110000AEF3EF0196D0FE019701A801DA9479F7CA
:10111000DF90EF90FF900F911F91CF91DF91089595
:10112000092E0394000C11F4882352F0BB0F40F4F5
:10113000BF2B11F460FF04C06F5F7F4F8F4F9F4F35
:1011400008959B01AC0160E070E080E89FE30CCC67
:10115000CCD028F0D1D018F0952309F0BDC0C2C082
:101160001124F4C0D0D0A0F3959FD1F3950F50E097
:10117000551F629FF001729FBB27F00DB11D639F49
:10118000AA27F00DB11DAA1F649F6627B00DA11DEF
:10119000661F829F2227B00DA11D621F739FB00D95
:1011A000A11D621F839FA00D611D221F749F332705
:1011B000A00D611D231F849F600D211D822F762F9E
:1011C0006A2F11249F5750408AF0E1F088234AF09B
:1011D000EE0FFF1FBB1F661F771F881F91505040E7
:1011E000A9F79E3F510570F077C0B0C05F3FECF3A8
:1011F000983EDCF3869577956795B795F795E795D3
:101200009F5FC1F7FE2B880F911D9695879597F9E3
:1012100008959B01AC01AECA68D030F06DD020F0CB
:1012200031F49F3F11F41EF45DC00EF4E095E7FB2E
:1012300053C0E92F68D080F3BA1762077307840799
:10124000950718F071F49EF580C00EF4E0950B2E12
:10125000BA2FA02D0B01B90190010C01CA01A00108
:101260001124FF27591B99F0593F50F4503E68F163
:101270001A16F040A22F232F342F4427585FF3CFA4
:10128000469537952795A795F0405395C9F77EF475
:101290001F16BA0B620B730B840BBAF09150A1F0BE
:1012A000FF0FBB1F661F771F881FC2F70EC0BA0F44
:1012B000621F731F841F48F4879577956795B795CC
:1012C000F7959E3F08F0B3CF9395880F08F09927C4
:1012D000EE0F97958795089597F99F6780E870E0DE
:1012E00060E008959FEF80EC089500240A9416169C
:1012F000170618060906089500240A941216130604
:1013000014060506089557FD9058440F551F59F0CF
:101310005F3F71F04795880F97FB991F61F09F3FE2
:1013200079F087950895121613061406551FF2CF0B
:101330004695F1DF08C0161617061806991FF1CF5B
:1013400086957105610508940895E894BB27662782
:0C1350007727CB0197F90895F894FFCFA0
:10135C000000000000000000000102020303030370
:10136C000404040404040404050505050505050529
:10137C000505050505050505060606060606060609
:10138C0006060606060606060606060606060606F1
:10139C0006060606060606060707070707070707D9
:1013AC0007070707070707070707070707070707C1
:1013BC0007070707070707070707070707070707B1
:1013CC0007070707070707070707070707070707A1
:1013DC000707070707070707080808080808080889
:1013EC000808080808080808080808080808080871
:1013FC000808080808080808080808080808080861
:10140C000808080808080808080808080808080850
:10141C000808080808080808080808080808080840
:10142C000808080808080808080808080808080830
:10143C000808080808080808080808080808080820
:10144C000808080808080808080808080808080810
:08145C00080808080808080848
:00000001FF
