:100000000C9441000C9456000C9456000C9456002D
:100010000C9456000C9456000C9456000C94560008
:100020000C9456000C9456000C9456000C945600F8
:100030000C9456000C9456000C9456000C945600E8
:100040000C9456000C9456000C9456000C945600D8
:100050000C945600084AD73B3BCE016E84BCBFFDD2
:10006000C12F3D6C74319ABD56833DDA3D00C77F88
:1000700011BED9E4BB4C3E916BAAAABE0000008021
:100080003F0011241FBECFE5D4E0DEBFCDBF11E09D
:10009000A0E6B0E0E4E9FBE002C005900D92A036D6
:1000A000B107D9F70E947D000C94C8050C9400009C
:1000B0001ABA8FEF8BBB17BA88BB84BB15BA81BB4A
:1000C00012BA87E886B90895805E87B9369A36995C
:1000D000FECF08958130910511F4A89A01C0A89827
:1000E0006130710511F4A99A01C0A99841305105F8
:1000F00011F4AA9A0895AA980895BF92CF92DF9218
:10010000EF92FF920F931F93DF93CF93CDB7DEB79C
:1001100029970FB6F894DEBF0FBECDBF0E945800DE
:1001200000E010E06E010894C11CD11CBB24B39404
:1001300019C0C8010E94640085B1F801EE0FFF1FCD
:10014000EC0DFD1D8383148285B1F601E00FF11FD4
:10015000853B10F0B08201C010820F5F1F4F02C0BC
:1001600000E010E00430110524F38C819D81688546
:1001700079850E949703882777FD8095982F0E94A4
:100180004D010E94F5037B018C016A814B818981BD
:1001900090E070E050E00E946A00C801B70123E3DC
:1001A00033E343E35FE30E941D0187FD05C0909A9E
:1001B000919A929A939AD4CFC801B7012DEC3CEC56
:1001C0004CEC5DE30E941D0187FDCACF9098919889
:1001D00092989398C5CF0E949703882777FD8095C2
:1001E000982F0E944D010E94F5030895BA010E94C4
:1001F0009703882777FD8095982F0E944D010E94D4
:10020000F5030895CB01BA010E949703882777FD73
:100210008095982F0E944D010E94F503089560E09B
:1002200070E0CB01089560E070E0CB01089508957F
:1002300060E070E080E090E80895A8E1B0E0E3E2DB
:10024000F1E00C94CA0369837A838B839C832D83AA
:100250003E834F8358878E01075F1F4FCE01019663
:10026000B8010E94D50281E1E82EF12CEC0EFD1EB2
:10027000CE010596B7010E94D5028985823040F0F3
:100280008989823028F0C801B7010E943E0301C06D
:100290008FEF6896E6E00C94E603A8E0B0E0E3E5B3
:1002A000F1E00C94CA037B018C0183E08983D801BF
:1002B000C7018827B7FD83959927AA27BB27282F31
:1002C0008A83E114F1040105110519F482E08983A0
:1002D00037C08EE190E09C838B83222389F080E0FD
:1002E000E81680E0F80680E0080780E8180769F162
:1002F00010950095F094E094E11CF11C011D111D76
:10030000ED82FE820F831887C801B7010E94AD01FC
:100310009C01215030401216130694F4022E04C0A2
:10032000EE0CFF1C001F111F0A94D2F7ED82FE8213
:100330000F8318878EE190E0821B930B9C838B8345
:10034000CE0101960E94070204C060E070E080E0E8
:100350009FEC2896E6E00C94E603AF92BF92CF9212
:10036000DF92EF92FF920F931F937B018C0180E04D
:10037000E81680E0F80681E0080780E0180758F4E6
:10038000EFEFEE16F1040105110509F090F480E09D
:1003900090E0DC0117C0F0E0EF16F0E0FF06F0E0BF
:1003A0000F07F1E01F0750F480E190E0A0E0B0E01B
:1003B00009C088E090E0A0E0B0E004C088E190E0EF
:1003C000A0E0B0E020E230E040E050E0281B390B34
:1003D0004A0B5B0B5701680104C0D694C794B794CD
:1003E000A7948A95D2F7D601C501805A9F4FFC0188
:1003F0008081281B310941095109C9011F910F91C1
:10040000FF90EF90DF90CF90BF90AF900895EF9264
:10041000FF920F931F93CF93DF93FC0124813581CB
:100420004681578161818081823020F44061EFEF05
:10043000F0E0A3C0843009F49BC0823009F492C07C
:10044000211531054105510509F48FC00280F38162
:10045000E02D8FEFE238F8070CF05AC0C2E8DFEF6A
:10046000CE1BDF0BCA31D1056CF579018A010C2E48
:1004700004C016950795F794E7940A94D2F781E0A3
:1004800090E0A0E0B0E00C2E04C0880F991FAA1FD6
:10049000BB1F0A94D2F70197A109B10982239323C4
:1004A000A423B52321E030E040E050E00097A1050F
:1004B000B10519F420E030E0A9012E293F29402B95
:1004C000512B03C020E030E0A901DA01C9018F7788
:1004D0009070A070B07080349105A105B10539F419
:1004E00027FF09C0205C3F4F4F4F5F4F04C0215C86
:1004F0003F4F4F4F5F4FE1E0F0E0203080E03807A2
:1005000080E0480780E4580728F5E0E0F0E022C0EA
:10051000E038F1056CF5E158FF4FDA01C9018F773A
:100520009070A070B07080349105A105B10539F4C8
:1005300027FF09C0205C3F4F4F4F5F4F04C0215C35
:100540003F4F4F4F5F4F57FF05C056954795379523
:100550002795319687E056954795379527958A9543
:10056000D1F70BC0E0E0F0E005C0E0E0F0E005C04E
:10057000EFEFF0E020E030E0A9018E2F879588278B
:100580008795942F9F77679566276795E695E22E66
:10059000A92FA82BFE2FF62B622F732F8A2F9F2FA8
:1005A000CDB7DEB7E6E00C94E603DC01FB012C914D
:1005B00011963C91119712968C911297482F4F7774
:1005C00050E0982F991F9927991F13966C911397B4
:1005D000862F880F892B90E0661F6627661F618330
:1005E000009739F5211531054105510511F482E0D7
:1005F00029C082E89FEF9383828367E0220F331F35
:10060000441F551F6A95D1F783E0808309C0220FEC
:10061000331F441F551F82819381019793838283E7
:10062000203080E0380780E0480780E4580778F3FE
:1006300020C08F3F910579F4211531054105510501
:1006400019F484E08083089544FF03C081E080832F
:1006500010C010820EC08F5790409383828383E036
:10066000808387E0220F331F441F551F8A95D1F7DF
:10067000506424833583468357830895FC01DB014E
:100680009081923008F449C08C91823008F445C0C2
:10069000943051F461818430B1F511962C91119709
:1006A00030E0261B310941C0843021F0923041F402
:1006B0008230B1F111968C9111978823A1F12DC050
:1006C0006181823001F111968C9111976817D9F4EC
:1006D0002281338112968D919C91139782179307F3
:1006E00094F028173907BCF0248135814681578161
:1006F00014968D919D910D90BC91A02D821793071A
:10070000A407B50718F4662341F00DC02817390770
:100710004A075B0728F4662331F021E030E005C08A
:1007200020E030E002C02FEF3FEFC901089597FBB2
:10073000092E07260AD077FD04D00CD006D0002061
:100740001AF4709561957F4F0895F6F7909581950D
:100750009F4F0895AA1BBB1B51E107C0AA1FBB1FD7
:10076000A617B70710F0A61BB70B881F991F5A953D
:10077000A9F780959095BC01CD0108952F923F92E5
:100780004F925F926F927F928F929F92AF92BF92A1
:10079000CF92DF92EF92FF920F931F93CF93DF934D
:1007A000CDB7DEB7CA1BDB0B0FB6F894DEBF0FBEAA
:1007B000CDBF09942A88398848885F846E847D84F7
:1007C0008C849B84AA84B984C884DF80EE80FD80F9
:1007D0000C811B81AA81B981CE0FD11D0FB6F8946F
:1007E000DEBF0FBECDBFED010895DF93DD27B92F2A
:1007F000BF7740E85FE31616170648075B0710F45B
:10080000D92F51D09F938F937F936F93B4D0E4E50A
:10081000F0E013D037D02F913F914F915F9154D09A
:10082000DD2349F09058A2EA2AED3FE049EC5FE36E
:10083000D0785D27B0D0DF9125C0DF93CF931F9391
:100840000F93FF92EF92DF927B018C01689405C0B9
:10085000DA2EEF0139D0FE01E894A591259135916A
:1008600045915591AEF3EF0196D0FE019701A80195
:10087000DA9479F7DF90EF90FF900F911F91CF916D
:10088000DF910895092E0394000C11F4882352F08F
:10089000BB0F40F4BF2B11F460FF04C06F5F7F4FAC
:1008A0008F4F9F4F08959B01AC0160E070E080E89E
:1008B0009FE3C4C034D128F039D118F0952309F052
:1008C00025C12AC111245CC138D1A0F3959FD1F371
:1008D000950F50E0551F629FF001729FBB27F00DEE
:1008E000B11D639FAA27F00DB11DAA1F649F662743
:1008F000B00DA11D661F829F2227B00DA11D621F92
:10090000739FB00DA11D621F839FA00D611D221F4B
:10091000749F3327A00D611D231F849F600D211D2F
:10092000822F762F6A2F11249F5750408AF0E1F0D2
:1009300088234AF0EE0FFF1FBB1F661F771F881F1B
:1009400091505040A9F79E3F510570F0DFC018C18B
:100950005F3FECF3983EDCF3869577956795B79506
:10096000F795E7959F5FC1F7FE2B880F911D969530
:10097000879597F908959B01AC0108C1D0D030F05C
:10098000D5D020F031F49F3F11F41EF4C5C00EF411
:10099000E095E7FBBBC0E92FD0D080F3BA17620720
:1009A00073078407950718F071F49EF5E8C00EF4FC
:1009B000E0950B2EBA2FA02D0B01B90190010C016F
:1009C000CA01A0011124FF27591B99F0593F50F487
:1009D000503E68F11A16F040A22F232F342F4427DF
:1009E000585FF3CF469537952795A795F0405395D7
:1009F000C9F77EF41F16BA0B620B730B840BBAF0A7
:100A00009150A1F0FF0FBB1F661F771F881FC2F711
:100A10000EC0BA0F621F731F841F48F48795779525
:100A20006795B795F7959E3F08F0B3CF9395880FDC
:100A300008F09927EE0F9795879508950CD022CF4F
:100A400075D040F06CD030F021F45F3F19F05EC0FB
:100A5000511196C061C071D098F39923C9F3552301
:100A6000B1F3951B550BBB27AA27621773078407A1
:100A700038F09F5F5F4F220F331F441FAA1FA9F357
:100A800033D00E2E3AF0E0E830D091505040E69549
:100A9000001CCAF729D0FE2F27D0660F771F881FAA
:100AA000BB1F261737074807AB07B0E809F0BB0B99
:100AB000802DBF01FF2793585F4F2AF09E3F5105BD
:100AC00068F024C05DC05F3FECF3983EDCF3869590
:100AD00077956795B795F7959F5FC9F7880F911D33
:100AE0009695879597F90895E1E0660F771F881F1F
:100AF000BB1F621773078407BA0720F0621B730BD2
:100B0000840BBA0BEE1F88F7E095089597F99F675D
:100B100080E870E060E008959FEF80EC0895002485
:100B20000A941616170618060906089500240A9452
:100B30001216130614060506089557FD9058440F23
:100B4000551F59F05F3F71F04795880F97FB991F2C
:100B500061F09F3F79F087950895121613061406E9
:100B6000551FF2CF4695F1DF08C016161706180676
:100B7000991FF1CF86957105610508940895E89451
:100B8000BB2766277727CB0197F908959DDE7ACE9C
:040B9000F894FFCF07
:100B94000001020203030303040404040404040420
:100BA40005050505050505050505050505050505F1
:100BB40006060606060606060606060606060606D1
:100BC40006060606060606060606060606060606C1
:100BD40007070707070707070707070707070707A1
:100BE4000707070707070707070707070707070791
:100BF4000707070707070707070707070707070781
:100C04000707070707070707070707070707070770
:100C14000808080808080808080808080808080850
:100C24000808080808080808080808080808080840
:100C34000808080808080808080808080808080830
:100C44000808080808080808080808080808080820
:100C54000808080808080808080808080808080810
:100C64000808080808080808080808080808080800
:100C740008080808080808080808080808080808F0
:100C840008080808080808080808080808080808E0
:00000001FF
