:100000000C9441000C944B000C944B000C944B004E
:100010000C944B000C944B000C944B000C944B0034
:100020000C944B000C944B000C944B000C944B0024
:100030000C944B000C944B000C944B000C944B0014
:100040000C944B000C944B000C944B000C944B0004
:100050000C944B00084AD73B3BCE016E84BCBFFDDD
:10006000C12F3D6C74319ABD56833DDA3D00C77F88
:1000700011BED9E4BB4C3E916BAAAABE0000008021
:100080003F0011241FBECFE5D4E0DEBFCDBF0E94EC
:100090008A060C942B090C94000084B7806884BFF6
:1000A00084B7806884BF1ABA1BBA8FE187BB18BABD
:1000B0008FEF84BB15BA81BB12BA87E886B9089561
:1000C000805E87B9369A3699FECF0895EF92FF92F7
:1000D0000F931F939B01AC01C801B7010E945B07FE
:1000E0000E942F0726EE3EE245E652E40E94BB083E
:1000F0001F910F91FF90EF900895AF92BF92CF9212
:10010000DF92EF92FF920F931F937B018C017F2D63
:10011000912F20E030E048EC52E40E94AE0818161F
:100120000CF09EC26E2D7F2D802F912F20E030E0AD
:1001300041E654E40E94AE0887FD10C06E2D7F2D6D
:10014000802F912F20E030E041E654E40E94C50664
:10015000B62EA72ED82EC92E86EFE5C06E2D7F2D88
:10016000802F912F20E030E048E454E40E94AE0854
:1001700087FD10C06E2D7F2D802F912F20E030E065
:1001800048E454E40E94C506B62EA72ED82EC92EE8
:100190008EEFC9C06E2D7F2D802F912F20E030E093
:1001A0004FE254E40E94AE0887FD10C06E2D7F2DF3
:1001B000802F912F20E030E04FE254E40E94C506EA
:1001C000B62EA72ED82EC92E80EEADC06E2D7F2D57
:1001D000802F912F20E030E046E154E40E94AE08E9
:1001E00087FD10C06E2D7F2D802F912F20E030E0F5
:1001F00046E154E40E94C506B62EA72ED82EC92E7D
:100200008EEB91C06E2D7F2D802F912F20E030E05E
:100210004AEF53E40E94AE0887FD10C06E2D7F2D7B
:10022000802F912F20E030E04AEF53E40E94C50672
:10023000B62EA72ED82EC92E86EB75C06E2D7F2D1B
:10024000802F912F20E030E048EC53E40E94AE086C
:1002500087FD10C06E2D7F2D802F912F20E030E084
:1002600048EC53E40E94C506B62EA72ED82EC92E00
:1002700086E659C06E2D7F2D802F912F20E030E033
:1002800046E953E40E94AE0887FD10C06E2D7F2D15
:10029000802F912F20E030E046E953E40E94C5060C
:1002A000B62EA72ED82EC92E82EF3DC06E2D7F2DE3
:1002B000802F912F20E030E048E453E40E94AE0804
:1002C00087FD10C06E2D7F2D802F912F20E030E014
:1002D00048E453E40E94C506B62EA72ED82EC92E98
:1002E0008AED21C06E2D7F2D802F912F20E030E0F0
:1002F00048EC52E40E94AE0887FD10C06E2D7F2DA1
:10030000802F912F20E030E048EC52E40E94C50697
:10031000B62EA72ED82EC92E80E605C0BE2CAF2C37
:10032000D02EC12E80E085BB8FEE82BB81EE94E0A3
:100330000197F1F700C00000A5019601652F7A2D05
:10034000832F9C2D20E030E044EB52E40E94AE0865
:1003500087FD10C0A5019601652F7A2D832F9C2D56
:1003600020E030E044EB52E40E94C5067B018C01A2
:1003700086EFEFC0A5019601652F7A2D832F9C2D66
:1003800020E030E040EA52E40E94AE0887FD10C051
:10039000A5019601652F7A2D832F9C2D20E030E05A
:1003A00040EA52E40E94C5067B018C018EEFD1C069
:1003B000A5019601652F7A2D832F9C2D20E030E03A
:1003C0004CE852E40E94AE0887FD10C0A5019601DA
:1003D000652F7A2D832F9C2D20E030E04CE852E4ED
:1003E0000E94C5067B018C0180EEB3C0A501960179
:1003F000652F7A2D832F9C2D20E030E040E752E4DA
:100400000E94AE0887FD10C0A5019601652F7A2DC8
:10041000832F9C2D20E030E040E752E40E94C50687
:100420007B018C018EEB95C0A5019601652F7A2D7D
:10043000832F9C2D20E030E048E452E40E94AE0877
:1004400087FD10C0A5019601652F7A2D832F9C2D65
:1004500020E030E048E452E40E94C5067B018C01B4
:1004600086EB77C0A5019601652F7A2D832F9C2DF1
:1004700020E030E040E252E40E94AE0887FD10C068
:10048000A5019601652F7A2D832F9C2D20E030E069
:1004900040E252E40E94C5067B018C0186E659C009
:1004A000A5019601652F7A2D832F9C2D20E030E049
:1004B00040EF51E40E94AE0887FD10C0A5019601EF
:1004C000652F7A2D832F9C2D20E030E040EF51E402
:1004D0000E94C5067B018C0182EF3BC0A5019601FD
:1004E000652F7A2D832F9C2D20E030E040EA51E4E7
:1004F0000E94AE0887FD10C0A5019601652F7A2DD8
:10050000832F9C2D20E030E040EA51E40E94C50694
:100510007B018C018AED1DC0A5019601652F7A2D06
:10052000832F9C2D20E030E040E251E40E94AE0891
:1005300087FD0EC06E2D7F2D802F912F20E030E0A3
:1005400040E251E40E94C5067B018C0180E601C0B7
:100550008CEF85BB8FED82BB81EE94E00197F1F7C4
:1005600000C000006E2D7F2D802F912F20E030E005
:1005700040E151E40E94AE0887FF62C06E2D7F2DDE
:10058000802F912F20E030E040E051E40E94AE083F
:1005900087FF58C06E2D7F2D802F912F20E030E0F7
:1005A00040EE50E40E94AE0887FF4EC06E2D7F2DB6
:1005B000802F912F20E030E040EC50E40E94AE0804
:1005C00087FF44C06E2D7F2D802F912F20E030E0DB
:1005D00040EA50E40E94AE0887FF3AC06E2D7F2D9E
:1005E000802F912F20E030E040E850E40E94AE08D8
:1005F00087FF30C06E2D7F2D802F912F20E030E0BF
:1006000040E450E40E94AE0887FF26C06E2D7F2D87
:10061000802F912F20E030E040E050E40E94AE08AF
:1006200087FF1CC06E2D7F2D802F912F20E030E0A2
:1006300040E85FE30E94AE0887FDABC281E6BEC220
:1006400087EFBCC28FEFBAC281EEB8C28FEBB6C2E1
:1006500087EBB4C287E6B2C283EFB0C28BEDAEC205
:100660006E2D7F2D802F912F20E030E044EB52E45F
:100670000E94AE0887FD10C06E2D7F2D802F912F18
:1006800020E030E044EB52E40E94C506D62EC72E8F
:10069000B82EA92E86EFE5C06E2D7F2D802F912FCD
:1006A00020E030E040EA52E40E94AE0887FD10C02E
:1006B0006E2D7F2D802F912F20E030E040EA52E414
:1006C0000E94C506D62EC72EB82EA92E8EEFC9C001
:1006D0006E2D7F2D802F912F20E030E04CE852E4EA
:1006E0000E94AE0887FD10C06E2D7F2D802F912FA8
:1006F00020E030E04CE852E40E94C506D62EC72E1A
:10070000B82EA92E80EEADC06E2D7F2D802F912F9B
:1007100020E030E040E752E40E94AE0887FD10C0C0
:100720006E2D7F2D802F912F20E030E040E752E4A6
:100730000E94C506D62EC72EB82EA92E8EEB91C0CC
:100740006E2D7F2D802F912F20E030E048E452E481
:100750000E94AE0887FD10C06E2D7F2D802F912F37
:1007600020E030E048E452E40E94C506D62EC72EB1
:10077000B82EA92E86EB75C06E2D7F2D802F912F60
:1007800020E030E040E252E40E94AE0887FD10C055
:100790006E2D7F2D802F912F20E030E040E252E43B
:1007A0000E94C506D62EC72EB82EA92E86E659C0A1
:1007B0006E2D7F2D802F912F20E030E040EF51E40F
:1007C0000E94AE0887FD10C06E2D7F2D802F912FC7
:1007D00020E030E040EF51E40E94C506D62EC72E3F
:1007E000B82EA92E82EF3DC06E2D7F2D802F912F28
:1007F00020E030E040EA51E40E94AE0887FD10C0DE
:100800006E2D7F2D802F912F20E030E040EA51E4C3
:100810000E94C506D62EC72EB82EA92E8AED21C05D
:100820006E2D7F2D802F912F20E030E040E251E4AB
:100830000E94AE0887FD10C06E2D7F2D802F912F56
:1008400020E030E040E251E40E94C506D62EC72EDB
:10085000B82EA92E80E605C0DE2CCF2CB02EA12EFE
:100860008CEF85BB8FEE82BB81EE94E00197F1F7B0
:1008700000C00000A6019501652F7C2D832F9A2DC5
:1008800020E030E040E151E40E94AE0887FD10C056
:10089000A6019501652F7C2D832F9A2D20E030E055
:1008A00040E151E40E94C5067B018C0187EFF1C055
:1008B000A6019501652F7C2D832F9A2D20E030E035
:1008C00040E051E40E94AE0887FD10C0A6019501EA
:1008D000652F7C2D832F9A2D20E030E040E051E4FD
:1008E0000E94C5067B018C018FEFD3C0A601950144
:1008F000652F7C2D832F9A2D20E030E040EE50E4D0
:100900000E94AE0887FD10C0A6019501652F7C2DC1
:10091000832F9A2D20E030E040EE50E40E94C5067F
:100920007B018C0181EEB5C0A6019501652F7C2D60
:10093000832F9A2D20E030E040EC50E40E94AE0876
:1009400087FD10C0A6019501652F7C2D832F9A2D60
:1009500020E030E040EC50E40E94C5067B018C01B1
:100960008FEB97C0A6019501652F7C2D832F9A2DC3
:1009700020E030E040EA50E40E94AE0887FD10C05D
:10098000A6019501652F7C2D832F9A2D20E030E064
:1009900040EA50E40E94C5067B018C0187EB79C0D8
:1009A000A6019501652F7C2D832F9A2D20E030E044
:1009B00040E850E40E94AE0887FD10C0A6019501F2
:1009C000652F7C2D832F9A2D20E030E040E850E405
:1009D0000E94C5067B018C0187E65BC0A6019501DC
:1009E000652F7C2D832F9A2D20E030E040E450E4E9
:1009F0000E94AE0887FD10C0A6019501652F7C2DD1
:100A0000832F9A2D20E030E040E450E40E94C50698
:100A10007B018C0183EF3DC0A6019501652F7C2DE4
:100A2000832F9A2D20E030E040E050E40E94AE0891
:100A300087FD10C0A6019501652F7C2D832F9A2D6F
:100A400020E030E040E050E40E94C5067B018C01CC
:100A50008BED1FC0A6019501652F7C2D832F9A2D4C
:100A600020E030E040E85FE30E94AE0887FD10C060
:100A7000A6019501652F7C2D832F9A2D20E030E073
:100A800040E85FE30E94C5067B018C0181E601C05E
:100A90008CEF85BB8FED82BB81EE94E00197F1F77F
:100AA00000C000006E2D7F2D802F912F26E636E6A8
:100AB00046E65FE30E94AE0887FF6DC06E2D7F2D76
:100AC000802F912F2DEC3CEC4CE45FE30E94AE08AC
:100AD00087FF63C06E2D7F2D802F912F23E333E39B
:100AE00043E35FE30E94AE0887FF59C06E2D7F2D60
:100AF000802F912F2AE939E949E15FE30E94AE088E
:100B000087FF4FC06E2D7F2D802F912F20E030E08A
:100B100040E05FE30E94AE0887FF45C06E2D7F2D49
:100B2000802F912F2DEC3CEC4CEC5EE30E94AE0844
:100B300087FF3BC06E2D7F2D802F912F2AE939E949
:100B400049E95EE30E94AE0887FF31C06E2D7F2D1C
:100B5000802F912F2DEC3CEC4CE45EE30E94AE081C
:100B600087FF27C06E2D7F2D802F912F2DEC3CEC21
:100B70004CEC5DE30E94AE0887FF1DC06E2D7F2DFB
:100B8000802F912F20E030E0A9010E94AE0887FD60
:100B900014C08CEF13C086EF11C08EEF0FC080EE33
:100BA0000DC08EEB0BC086EB09C086E607C082EF56
:100BB00005C08AED03C080E601C08EE685BB8FEBE1
:100BC00082BB1F910F91FF90EF90DF90CF90BF906D
:100BD000AF900895AF92BF92CF92DF92EF92FF92C3
:100BE0000F931F935B016C0179018A0120E030E0D3
:100BF00048EB52E40E945707882359F4C801B70113
:100C00002DEC3CEC41EA52E40E945707882361F442
:100C100061C0C601B50120E030E046EB52E40E941D
:100C20005707882361F016C0C801B70120E030E003
:100C300046EA52E40E945707882361F44DC0C80178
:100C4000B70120E030E04AEA52E40E9457078823C7
:100C500061F544C0C601B50120E030E042EB52E44A
:100C60000E945707882361F4C801B70120E030E0F3
:100C70004EEA52E40E945707882309F048C030C06A
:100C8000C601B50120E030E040EB52E40E94570776
:100C9000882359F4C801B70120E030E042EB52E468
:100CA0000E945707882399F51EC0C601B50120E0B0
:100CB00030E04AEA52E40E945707882341F5C80110
:100CC000B7012DEC3CEC45EB52E40E94570788231A
:100CD000F1F40BC094EB05C096E903C090E701C0A6
:100CE00094E382E404C090EF01C090E781E450E017
:100CF00040E09C01652F742F832F922F1F910F913D
:100D0000FF90EF90DF90CF90BF90AF90089590E06C
:100D100080E0EDCFCF92DF92EF92FF920F931F937F
:100D2000DF93CF93CDB7DEB764970FB6F894DEBFED
:100D30000FBECDBF0E944D006E010894C11CD11C96
:100D4000C39A760100E010E0C8010E94600065B11E
:100D500070E080E090E00E94C407F7016193719316
:100D6000819391937F010F5F1F4F0630110561F74B
:100D700069817A818B819C8129853A854B855C8547
:100D80000E94EA050E947D00DBCF5058BB27AA27AE
:100D90000ED0A9C19AD130F09FD120F031F49F3FFD
:100DA00011F41EF458C10EF4E095E7FB4EC1E92F93
:100DB000ABD180F3BA17620773078407950718F061
:100DC00099F4C6F5C3C10EF4E0950B2EBA2FA02DF1
:100DD000062E622F202D072E732F302D082E842FE4
:100DE000402D092E952F502DFF27591B99F0593F63
:100DF00050F4503E68F11A16F040A22F232F342FE2
:100E00004427585FF3CF469537952795A795F0402F
:100E10005395C9F77EF41F16BA0B620B730B840B44
:100E2000BAF09150A1F0FF0FBB1F661F771F881FFC
:100E3000C2F70EC0BA0F621F731F841F48F4879554
:100E400077956795B795F7959E3F08F0AECF939548
:100E5000880F08F09927EE0F979587950895DF93EF
:100E6000DD27B92FBF7740E85FE31616170648075E
:100E70005B0710F4D92F76D19F938F937F936F9355
:100E8000E5D1E4E5F0E0EAD02ED12F913F914F91EA
:100E90005F917CD1DD2349F09058A2EA2AED3FE032
:100EA00049EC5FE3D0785D2782DFDF911CC1A9D0D8
:100EB00008F481E008950CD016C10ED140F005D1A0
:100EC00030F021F45F3F19F0C0C0511140C1C3C0E0
:100ED0001BD198F39923C9F35523B1F3951B550BF7
:100EE000BB27AA2762177307840738F09F5F5F4FFD
:100EF000220F331F441FAA1FA9F334D00E2E3AF03D
:100F0000E0E831D091505040E695001CCAF72AD055
:100F1000FE2F28D0660F771F881FBB1F26173707A5
:100F20004807AB07B0E809F0BB0B802D6E2F7F2F71
:100F3000FF2793585F4F2AF09E3F510568F085C008
:100F400006C15F3FECF3983EDCF386957795679595
:100F5000B795F7959F5FC9F7880F911D969587956F
:100F600097F90895E1E0660F771F881FBB1F62178E
:100F700073078407BA0720F0621B730B840BBA0B4C
:100F8000EE1F88F7E0950895E89409C097FB3EF4BA
:100F900090958095709561957F4F8F4F9F4F9923C6
:100FA000A9F0F92F96E9BB279395F6958795779544
:100FB0006795B795F111F8CFFAF4BB0F11F460FF04
:100FC0001BC06F5F7F4F8F4F9F4F16C0882311F05C
:100FD00096E911C0772321F09EE8872F762F05C070
:100FE000662371F096E8862F70E060E02AF09A950B
:100FF000660F771F881FDAF7880F9695879597F900
:101000000895990F0008550FAA0BE0E8FEEF161699
:101010001706E807F907C0F012161306E407F507EC
:1010200098F0621B730B840B950B39F40A2661F060
:10103000232B242B252B21F408950A2609F4A14003
:10104000A6958FEF811D811D089597F99F6780E810
:1010500070E060E008959FEF80EC0895DF93CF93F8
:101060001F930F93FF92EF92DF92E62EF72E082F39
:10107000192F689407C0DA2ECE2FDF2F87D0EC2FE0
:10108000FD2FE894C895A02D3196C895202D319656
:10109000C895302D3196C895402D3196C895502D64
:1010A00031964EF3CE2FDF2F82DEEC2FFD2F2E2D2B
:1010B0003F2D402F512FDA94F9F6DF90EF90FF90FB
:1010C0000F911F91CF91DF91089500240A94161675
:1010D000170618060906089500240A941216130626
:1010E000140605060895092E0394000C11F48823B4
:1010F00052F0BB0F40F4BF2B11F460FF04C06F5FD0
:101100007F4F8F4F9F4F089557FD9058440F551FA5
:1011100059F05F3F71F04795880F97FB991F61F079
:101120009F3F79F087950895121613061406551FF0
:10113000F2CF4695F1DF08C0161617061806991F5C
:10114000F1CF86957105610508940895E894BB2751
:1011500066277727862F972F97F9089552DF08F48F
:101160008FEF0895262F372F482F592F60E070E01A
:1011700080E89FE3A0CE0AD0B6CFA7DF28F0ACDF8F
:1011800018F0952309F061CF66CFE1CFBDDFA8F35A
:101190009923D9F35523C9F3950F50E0551FAA277A
:1011A000EE27FF27BB2700240894679520F4E20F61
:1011B000F31FB41F0A1E220F331F441FAA1F669578
:1011C000A9F7779530F4F30FB41F0A1E121E08F426
:1011D0006395330F441FAA1F221F769599F78795B1
:1011E00020F4B40F0A1E121E631F440FAA1F221FF1
:1011F000331F8695A9F7862F712D602D11249F57D7
:1012000050408AF0E1F088234AF0EE0FFF1FBB1F29
:10121000661F771F881F91505040A9F79E3F5105C8
:1012200070F013CF94CF5F3FECF3983EDCF38695DC
:1012300077956795B795F795E7959F5FC1F7FE2B73
:10124000880F911D9695879597F90895262F372F2A
:0A125000482F592F90CFF894FFCFDC
:00000001FF
