:100000000C9450000C9465000C9465000C946500F1
:100010000C9465000C9465000C9465000C946500CC
:100020000C9465000C9465000C9465000C946500BC
:100030000C9465000C9465000C9465000C946500AC
:100040000C9465000C9465000C9465000C9465009C
:100050000C946500084AD73B3BCE016E84BCBFFDC3
:10006000C12F3D6C74319ABD56833DDA3D00C77F88
:1000700011BED9E4BB4C3E916BAAAABE0000008021
:100080003F05A84CCDB2D44EB93836A9020C50B9B0
:10009000918688083CA6AAAA2ABE000000803F00DC
:1000A00011241FBECFE5D4E0DEBFCDBF11E0A0E636
:1000B000B0E0EEE1FBE102C005900D92A836B10779
:1000C000D9F70E94D5030C948D0D0C94000084B7D1
:1000D000806884BF84B7806884BF1ABA1BBA8FE176
:1000E00087BB18BA8FEF84BB15BA81BB12BA87E8F9
:1000F00086B90895805E87B9369A3699FECF0895FD
:10010000EF92FF920F931F939B01AC01C801B701BF
:100110000E949C070E947D0B26EE3EE245E652E4DB
:100120000E94A2061F910F91FF90EF900895EF9209
:10013000FF920F931F937A018B01CB01BA0120E04C
:1001400030E044EB52E40E944A08181614F485E0AB
:10015000CDC0C801B70120E030E04AEA52E40E9475
:100160004A08181614F480E1C1C0C801B70120E0A4
:1001700030E040EA52E40E944A08181614F485E17F
:10018000B5C0C801B70120E030E046E952E40E9462
:100190004A08181614F480E2A9C0C801B70120E08B
:1001A00030E04CE852E40E944A08181614F485E244
:1001B0009DC0C801B70120E030E042E852E40E944F
:1001C0004A08181614F480E391C0C801B70120E072
:1001D00030E040E752E40E944A08181614F485E320
:1001E00085C0C801B70120E030E04CE552E40E9430
:1001F0004A08181614F480E479C0C801B70120E059
:1002000030E048E452E40E944A08181614F485E4E9
:100210006DC0C801B70120E030E044E352E40E9421
:100220004A08181614F480E561C0C801B70120E03F
:1002300030E040E252E40E944A08181614F485E5C2
:1002400055C0C801B70120E030E04CE052E40E9404
:100250004A08181614F480E649C0C801B70120E026
:1002600030E040EF51E40E944A08181614F485E685
:100270003DC0C801B70120E030E048EC51E40E94E5
:100280004A08181614F480E731C0C801B70120E00D
:1002900030E040EA51E40E944A08181614F485E759
:1002A00025C0C801B70120E030E040E751E40E94DA
:1002B0004A08181614F480E819C0C801B70120E0F4
:1002C00030E040E251E40E944A08181614F485E830
:1002D0000DC0C801B70120E030E040EA50E40E94C0
:1002E0004A08181614F480E901C08AEA82BB1F91FB
:1002F0000F91FF90EF900895DF92EF92FF920F938E
:100300001F937B018C017F2D912F20E030E044EB87
:1003100052E40E947A0887FD0FC06E2D7F2D802F3A
:10032000912F20E030E044EB52E40E9471067B0103
:100330008C01E0E9DE2ED9C06E2D7F2D802F912F0C
:1003400020E030E040EA52E40E947A0887FD0FC0C6
:100350006E2D7F2D802F912F20E030E040EA52E477
:100360000E9471067B018C0170E8D72EBEC06E2DF5
:100370007F2D802F912F20E030E04CE852E40E9446
:100380007A0887FD0FC06E2D7F2D802F912F20E0E2
:1003900030E04CE852E40E9471067B018C0160E77A
:1003A000D62EA3C06E2D7F2D802F912F20E030E020
:1003B00040E752E40E947A0887FD0FC06E2D7F2D22
:1003C000802F912F20E030E040E752E40E94710638
:1003D0007B018C0150E6D52E88C06E2D7F2D802F9D
:1003E000912F20E030E048E452E40E947A0887FD33
:1003F0000FC06E2D7F2D802F912F20E030E048E43C
:1004000052E40E9471067B018C0140E5D42E6DC040
:100410006E2D7F2D802F912F20E030E040E252E4BE
:100420000E947A0887FD0FC06E2D7F2D802F912F9F
:1004300020E030E040E252E40E9471067B018C0132
:1004400030E4D32E52C06E2D7F2D802F912F20E0CF
:1004500030E040EF51E40E947A0887FD0FC06E2D16
:100460007F2D802F912F20E030E040EF51E40E945B
:1004700071067B018C0120E3D22E37C06E2D7F2DBB
:10048000802F912F20E030E040EA51E40E947A086A
:1004900087FD0FC06E2D7F2D802F912F20E030E043
:1004A00040EA51E40E9471067B018C0190E2D92E52
:1004B0001CC06E2D7F2D802F912F20E030E040E278
:1004C00051E40E947A0887FD0FC06E2D7F2D802F8A
:1004D000912F20E030E040E251E40E9471067B0160
:1004E0008C0180E1D82E01C0DD246E2D7F2D802F60
:1004F000912F20E030E040E151E40E947A0887FD2E
:1005000003C08D2D875F85C06E2D7F2D802F912F8D
:1005100020E030E040E051E40E947A0887FD03C00B
:100520008D2D885F76C06E2D7F2D802F912F20E03E
:1005300030E040EE50E40E947A0887FD03C08D2D24
:10054000895F67C06E2D7F2D802F912F20E030E0D6
:1005500040EC50E40E947A0887FD03C08D2D8A5F2D
:1005600058C06E2D7F2D802F912F20E030E040EA83
:1005700050E40E947A0887FD03C08D2D8B5F49C02F
:100580006E2D7F2D802F912F20E030E040E850E449
:100590000E947A0887FD03C08D2D8C5F3AC06E2DB6
:1005A0007F2D802F912F20E030E040E450E40E9426
:1005B0007A0887FD03C08D2D8D5F2BC06E2D7F2D9A
:1005C000802F912F20E030E040E050E40E947A0834
:1005D00087FD03C08D2D8E5F1CC06E2D7F2D802F5B
:1005E000912F20E030E040E85FE30E947A0887FD29
:1005F00002C0D3940BC06E2D7F2D802F912F20E051
:1006000030E0A9010E947A0887FD02C0D5BA02C075
:100610008AEA85BB1F910F91FF90EF90DF900895BC
:100620000E940A096730710514F0C29A13C066303F
:10063000710511F4C29A14C06530710511F4C29AA3
:1006400015C06430710511F4C29A14C0633071058D
:1006500019F4C298C19A0BC06230710519F4C2989E
:10066000C19A09C06130710521F4C298C198C09A3D
:100670000895C298C198C09808952F923F924F92C2
:100680005F926F927F928F929F92AF92BF92CF9222
:10069000DF92EF92FF920F931F937B018C01CA01AF
:1006A000B9010E94A206962E872E782E692E60E050
:1006B00070E084EB92E4A80197010E94710628E99A
:1006C00039EF4EE85CE30E94A2069B01AC010E9458
:1006D00044060E94430C5B016C019058D401F30165
:1006E0002B2F3A2F4F2F5E2F0E949C07F62E072F9D
:1006F000182FE92E20E030E040E850E40E94A206E6
:100700001B012C01A4019301652F742F832F922FBD
:100710002BE734E140EC51E40E94A206A6019501CA
:100720000E94A2069B01AC01C201B1010E94A20677
:100730002BE734E140EC52E40E9444060E944D0C49
:100740005B016C016F2D702F812F9E2D2F2D302F6F
:10075000412F5E2D0E9444069B01AC0160E070E0D9
:1007600080E89FE30E949C077B018C01C601B501D4
:100770002DEC3CEC4CE151E40E9471069B01AC0174
:10078000C801B7010E94A2061F910F91FF90EF9040
:10079000DF90CF90BF90AF909F908F907F906F90A1
:1007A0005F904F903F902F9008952F923F924F92DD
:1007B0005F926F927F928F929F92AF92BF92CF92F1
:1007C000DF92EF92FF920F931F93DF93CF93CDB7FA
:1007D000DEB764970FB6F894DEBF0FBECDBF0E94A0
:1007E0006700DD24CC24BB24AA24EE24FF2400E0EF
:1007F00010E0C39A3E010894611C711C882499245E
:10080000C4010E947A0065B170E06155704088278C
:1008100077FD8095982F0E94AA08F3016193719348
:10082000819391933F010894811C911CF6E08F16EF
:10083000910431F76D857E858F85988920E030E0C1
:1008400042EA52E40E944406562E472E382E292EA4
:10085000A2019101852F942FA32FB22F8D879E8700
:10086000AF87B88B69897A898B899C8920E030E0D1
:1008700042EA52E40E944406262F372F482F592F70
:10088000298B3A8B4B8B5C8BA1E08A2E912C20E03C
:1008900030E044E053E40E944A08181614F088241B
:1008A0009924F1E06F2E712CA2019101652F742D16
:1008B000832F922D20E030E044E053E40E944A0868
:1008C000181614F06624772481E068167104D1F4B8
:1008D00081149104D9F569857A858B859C85298158
:1008E0003A814B815C810E949C070E947D0B26EE21
:1008F0003EE245E652E40E94A206D62EC72EB82E4E
:10090000A92E24C081149104F1F5A6019501652F4B
:100910007C2D832F9A2D20E030E0A9010E9444060F
:10092000D62EC72EB82EA92E6E2D7F2D802F912F5B
:100930002DEC3CEC4CEC5DE30E9444067B018C0109
:10094000E7EAF1E63197F1F700C000006E2D7F2D48
:10095000802F912F0E9410036E2D7F2D802F912FBD
:1009600020E030E040E251E40E94A2060E947C01B7
:1009700081E090E0F60195014F2F5C2D632F7A2DD9
:100980000E94970036CFA6019501652F7C2D832FFD
:100990009A2D20E030E0A9010E944406D62EC72EF1
:1009A000B82EA92E6E2D7F2D802F912F20E030E0C4
:1009B000A9010E9444067B018C01A6019501652FC7
:1009C000742F832F922F2E2D3F2D402F512F0E94B9
:1009D0003D033B014C0181E090E0F60195014F2F72
:1009E0005E2F632F722F0E949700C401B3010E94F3
:1009F0007C01FFCEA0E0B0E0E0E0F5E00C944A0B13
:100A0000FC01EA018081823008F438C1DB019C914D
:100A1000923008F430C1843059F4943009F02EC17A
:100A2000918111968C911197981709F021C126C1D7
:100A3000943009F420C19230B1F4823009F01EC123
:100A4000CA01AF0128E0DA010D90AD01DC010D9281
:100A5000CD012150C1F7DB0111968C911197918145
:100A6000892389830AC1823009F405C1C280D380F9
:100A7000DB0112966D907C9013972481358146811D
:100A800057811496ED90FD900D911C911797C6011A
:100A9000861997095C0197FF04C0AA24BB24A81AF1
:100AA000B90AB0E2AB16B1040CF061C01816190611
:100AB0006CF5370148010A2C04C09694879477940A
:100AC00067940A94D2F781E090E0A0E0B0E00A2CAD
:100AD00004C0880F991FAA1FBB1F0A94D2F7019761
:100AE000A109B1098E219F21A023B123EE24FF2467
:100AF0008701E3940097A105B10519F4EE24FF24C2
:100B00008701E628F728082919293CC00097D1F168
:100B1000CA0CDB1C39014A010A2C04C09694879444
:100B2000779467940A94D2F781E090E0A0E0B0E077
:100B30000A2C04C0880F991FAA1FBB1F0A94D2F762
:100B40000197A109B10982239323A423B52321E0AE
:100B500030E040E050E00097A105B10519F420E035
:100B600030E0A90126293729482959290BC06C14DE
:100B70007D0424F4EE24FF24870104C0630120E0F7
:100B800030E0A9018181FB019181891709F445C0F9
:100B9000882349F0D801C701821B930BA40BB50B26
:100BA0009C01AD0104C02E193F09400B510B57FDAC
:100BB00004C01982DB82CA820BC081E08983DB8298
:100BC000CA8250954095309521953F4F4F4F5F4FCA
:100BD0002C833D834E835F830DC0880F991FAA1F0E
:100BE000BB1F8C839D83AE83BF838A819B810197CA
:100BF0009B838A838C819D81AE81BF819C01AD01E5
:100C000021503040404050402F3FEFEF3E07EFEF84
:100C10004E07EFE35E0708F30BC08983DB82CA82CD
:100C20002E0D3F1D401F511F2C833D834E835F833C
:100C300083E088832C813D814E815F8157FF1DC0F9
:100C4000DA01C90181709070A070B0705695479517
:100C500037952795822B932BA42BB52B8C839D83C3
:100C6000AE83BF838A819B8101969B838A8305C063
:100C7000E0E6F0E003C0FB0101C0FE01CF01CDB70B
:100C8000DEB7EEE00C94660BA0E2B0E0EAE4F6E03A
:100C90000C94520B69837A838B839C832D833E83D0
:100CA0004F83588789E0E82EF12CEC0EFD1ECE0113
:100CB0000196B7010E94840A8E010F5E1F4FCE017C
:100CC0000596B8010E94840AC701B801AE01475ECB
:100CD0005F4F0E94FA040E94B609A096E6E00C94C9
:100CE0006E0BA0E2B0E0E7E7F6E00C94520B6983EC
:100CF0007A838B839C832D833E834F8358878E0119
:100D0000075F1F4FCE010196B8010E94840A91E14E
:100D1000E92EF12CEC0EFD1ECE010596B7010E94C6
:100D2000840A8A8991E089278A8BC801B701AE01BC
:100D3000475E5F4F0E94FA040E94B609A096E6E063
:100D40000C946E0BA0E2B0E0E8EAF6E00C94460BDF
:100D500069837A838B839C832D833E834F8358875B
:100D6000CE010196BE01675F7F4F0E94840ACE01CB
:100D70000596BE016F5E7F4F0E94840A998592306E
:100D800078F089898230C0F0943019F4823041F4CF
:100D9000CBC0843019F4923079F4C6C0923051F44B
:100DA00081E02A859A89291709F480E08A87CE0193
:100DB0000996BCC0823051F481E02A859A892917AE
:100DC00009F480E08A8BCE014196B0C06D847E84A8
:100DD0008F849888ED88FE880F89188DE0E2F0E016
:100DE00080E090E0DC01AA24BB24650120E030E033
:100DF000A901B3016170707061157105D1F02E0DFC
:100E00003F1D401F511F15012601280E391E4A1E85
:100E10005B1E81E090E0A0E0B0E02E153F054007AA
:100E2000510718F080E090E0DC01820D931DA41DB5
:100E3000B51DAA0CBB1CCC1CDD1C17FF09C061E052
:100E4000262E312C412C512CA228B328C428D52879
:100E5000319749F0EE0CFF1C001F111F96948794E8
:100E600077946794C6CF6B897C89EB85FC856E0F80
:100E70007F1F6E5F7F4F7C8F6B8F61E0EA857A8981
:100E8000E71709F460E06A8F6B8D7C8D10C0FC0160
:100E9000E170F070309729F0569547953795279572
:100EA0005068B695A795979587956F5F7F4FB7FD6B
:100EB000EECF0CC0880F991FAA1FBB1F57FD816082
:100EC000220F331F441F551F615070408030E0E0F7
:100ED0009E07E0E0AE07E0E4BE0760F36B8F7C8F17
:100EE0006FE7E62EF12C012D112DE822F9220A23BD
:100EF0001B2360E4E616F1040105110561F487FD8A
:100F00000AC0211531054105510529F0805C9F4F2C
:100F1000AF4FBF4F80788D8F9E8FAF8FB8A383E088
:100F2000898FCE01499602C080E690E00E94B60902
:100F3000A096E2E10C94620BA8E1B0E0E2EAF7E0EF
:100F40000C944E0B69837A838B839C832D833E8321
:100F50004F8358878E01075F1F4FCE010196B8015E
:100F60000E94840A81E1E82EF12CEC0EFD1ECE01D8
:100F70000596B7010E94840A9985923008F483C0CF
:100F80008989823008F47BC02A853A8923272A87F9
:100F9000943011F0923021F4981709F06CC071C0B0
:100FA000843039F41D861E861F86188A1C861B868F
:100FB0006AC0823019F484E0898765C08B859C857E
:100FC0002B893C89821B930B9C878B872D853E85C3
:100FD0004F855889ED88FE880F89188D2E153F059D
:100FE0004007510738F4220F331F441F551F019744
:100FF0009C878B876FE170E0A12CB12CC12CA0E401
:10100000DA2E80E090E0DC012E153F054007510705
:1010100040F08A299B29AC29BD292E193F09400B94
:10102000510BD694C794B794A794220F331F441F33
:10103000551F6150704041F76FE7E62EF12C012DEE
:10104000112DE822F9220A231B2360E4E616F1049D
:101050000105110561F487FD0AC02115310541051F
:10106000510529F0805C9F4FAF4FBF4F80788D872F
:101070009E87AF87B88B8E01075F1F4F04C0870123
:1010800002C000E610E0C8010E94B6096896EAE0D6
:101090000C946A0BA8E1B0E0E0E5F8E00C94520B88
:1010A00069837A838B839C832D833E834F83588708
:1010B0008E01075F1F4FCE010196B8010E94840A7E
:1010C00081E1E82EF12CEC0EFD1ECE010596B70154
:1010D0000E94840A8985823040F08989823028F014
:1010E000C801B7010E94ED0A01C08FEF6896E6E0E3
:1010F0000C946E0BA8E1B0E0E0E8F8E00C94520B21
:1011000069837A838B839C832D833E834F835887A7
:101110008E01075F1F4FCE010196B8010E94840A1D
:1011200081E1E82EF12CEC0EFD1ECE010596B701F3
:101130000E94840A8985823040F08989823028F0B3
:10114000C801B7010E94ED0A01C08FEF6896E6E082
:101150000C946E0BA8E0B0E0E0EBF8E00C94520BBE
:101160007B018C0183E08983D801C7018827B7FD03
:1011700083959927AA27BB27282F8A83E114F10496
:101180000105110519F482E0898337C08EE190E0F2
:101190009C838B83222389F080E0E81680E0F806A8
:1011A00080E0080780E8180769F110950095F09431
:1011B000E094E11CF11C011D111DED82FE820F83E4
:1011C0001887C801B7010E945C099C01215030407A
:1011D0001216130694F4022E04C0EE0CFF1C001F1E
:1011E000111F0A94D2F7ED82FE820F8318878EE1D9
:1011F00090E0821B930B9C838B83CE0101960E940F
:10120000B60904C060E070E080E09FEC2896E6E05C
:101210000C946E0BACE0B0E0E0E1F9E00C94560BFE
:1012200069837A838B839C83CE010196BE016B5FB9
:101230007F4F0E94840A8D81823081F1823070F16B
:10124000843021F48E81882369F10AC02F8138858A
:1012500037FD24C06E812F3131053CF0662311F13A
:1012600020E030E040E050E821C08EE190E0821BB9
:10127000930B29853A854B855C8504C05695479527
:10128000379527958A95D2F7662381F0509540953A
:10129000309521953F4F4F4F5F4F08C020E030E021
:1012A000A90104C02FEF3FEF4FEF5FE7B901CA017B
:1012B0002C96E2E00C94720BAF92BF92CF92DF9229
:1012C000EF92FF920F931F937B018C0180E0E81651
:1012D00080E0F80681E0080780E0180758F4EFEF97
:1012E000EE16F1040105110509F090F480E090E09C
:1012F000DC0117C0F0E0EF16F0E0FF06F0E00F07AA
:10130000F1E01F0750F480E190E0A0E0B0E009C0F8
:1013100088E090E0A0E0B0E004C088E190E0A0E0C8
:10132000B0E020E230E040E050E0281B390B4A0BEF
:101330005B0B5701680104C0D694C794B794A79477
:101340008A95D2F7D601C50188599F4FFC0180814B
:10135000281B310941095109C9011F910F91FF90C3
:10136000EF90DF90CF90BF90AF900895EF92FF92F3
:101370000F931F93CF93DF93FC0124813581468126
:10138000578161818081823020F44061EFEFF0E08D
:10139000A3C0843009F49BC0823009F492C02115A7
:1013A00031054105510509F48FC00280F381E02D1C
:1013B0008FEFE238F8070CF05AC0C2E8DFEFCE1B1F
:1013C000DF0BCA31D1056CF579018A010C2E04C0FE
:1013D00016950795F794E7940A94D2F781E090E088
:1013E000A0E0B0E00C2E04C0880F991FAA1FBB1FFD
:1013F0000A94D2F70197A109B10982239323A42368
:10140000B52321E030E040E050E00097A105B105B0
:1014100019F420E030E0A9012E293F29402B512B5F
:1014200003C020E030E0A901DA01C9018F77907094
:10143000A070B07080349105A105B10539F427FF83
:1014400009C0205C3F4F4F4F5F4F04C0215C3F4FAE
:101450004F4F5F4FE1E0F0E0203080E0380780E060
:10146000480780E4580728F5E0E0F0E022C0E038C3
:10147000F1056CF5E158FF4FDA01C9018F779070E3
:10148000A070B07080349105A105B10539F427FF33
:1014900009C0205C3F4F4F4F5F4F04C0215C3F4F5E
:1014A0004F4F5F4F57FF05C0569547953795279586
:1014B000319687E056954795379527958A95D1F7C8
:1014C0000BC0E0E0F0E005C0E0E0F0E005C0EFEFC9
:1014D000F0E020E030E0A9018E2F879588278795DE
:1014E000942F9F77679566276795E695E22EA92F3B
:1014F000A82BFE2FF62B622F732F8A2F9F2FCDB78D
:10150000DEB7E6E00C946E0BDC01FB012C9111962A
:101510003C91119712968C911297482F4F7750E07B
:10152000982F991F9927991F13966C911397862FBF
:10153000880F892B90E0661F6627661F61830097DE
:1015400039F5211531054105510511F482E029C015
:1015500082E89FEF9383828367E0220F331F441F4B
:10156000551F6A95D1F783E0808309C0220F331F8E
:10157000441F551F8281938101979383828320307A
:1015800080E0380780E0480780E4580778F320C0FF
:101590008F3F910579F4211531054105510519F465
:1015A00084E08083089544FF03C081E0808310C0FD
:1015B00010820EC08F5790409383828383E0808394
:1015C00087E0220F331F441F551F8A95D1F75064BF
:1015D00024833583468357830895FC01DB01908182
:1015E000923008F449C08C91823008F445C09430A0
:1015F00051F461818430B1F511962C91119730E04E
:10160000261B310941C0843021F0923041F48230F0
:10161000B1F111968C9111978823A1F12DC06181B0
:10162000823001F111968C9111976817D9F42281BB
:10163000338112968D919C9113978217930794F0A2
:1016400028173907BCF024813581468157811496CB
:101650008D919D910D90BC91A02D82179307A407A9
:10166000B50718F4662341F00DC0281739074A075B
:101670005B0728F4662331F021E030E005C020E06C
:1016800030E002C02FEF3FEFC90108952F923F9243
:101690004F925F926F927F928F929F92AF92BF9282
:1016A000CF92DF92EF92FF920F931F93CF93DF932E
:1016B000CDB7DEB7CA1BDB0B0FB6F894DEBF0FBE8B
:1016C000CDBF09942A88398848885F846E847D84D8
:1016D0008C849B84AA84B984C884DF80EE80FD80DA
:1016E0000C811B81AA81B981CE0FD11D0FB6F89450
:1016F000DEBF0FBECDBFED010895DF93DD27B92F0B
:10170000BF7740E85FE31616170648075B0710F43B
:10171000D92F51D09F938F937F936F93FCD0E4E5A3
:10172000F0E013D037D02F913F914F915F9154D07B
:10173000DD2349F09058A2EA2AED3FE049EC5FE34F
:10174000D0785D27F8D0DF9125C0DF93CF931F932A
:101750000F93FF92EF92DF927B018C01689405C09A
:10176000DA2EEF0139D0FE01E894A591259135914B
:1017700045915591AEF3EF01DED0FE019701A8012E
:10178000DA9479F7DF90EF90FF900F911F91CF914E
:10179000DF910895092E0394000C11F4882352F070
:1017A000BB0F40F4BF2B11F460FF04C06F5F7F4F8D
:1017B0008F4F9F4F08959B01AC0160E070E080E87F
:1017C0009FE3BACB29D128F02ED118F0952309F048
:1017D00005C118C111248AC166D1A0F3959FD1F328
:1017E000950F50E0551F629FF001729FBB27F00DCF
:1017F000B11D639FAA27F00DB11DAA1F649F662724
:10180000B00DA11D661F829F2227B00DA11D621F72
:10181000739FB00DA11D621F839FA00D611D221F2C
:10182000749F3327A00D611D231F849F600D211D10
:10183000822F762F6A2F11249F5750408AF0E1F0B3
:1018400088234AF0EE0FFF1FBB1F661F771F881FFC
:1018500091505040A9F79E3F510570F0BFC046C15E
:101860005F3FECF3983EDCF3869577956795B795E7
:10187000F795E7959F5FC1F7FE2B880F911D969511
:10188000879597F908959F93D6D00F9007FCEE5F48
:10189000F9C011F40EF4B6C0A7C00DD1D0F399234E
:1018A000D9F3CEF39F57550B87FFAFD00024A0E6A6
:1018B00040EA900180585695979528F4805C660F11
:1018C000771F881F20F026173707480730F4621B60
:1018D000730B840B202931294A2BA6951794079462
:1018E000202531254A2758F7660F771F881F20F0DB
:1018F00026173707480730F4620B730B840B200D53
:10190000311D411DA09581F7B901842F9158880F91
:101910009695879508959B01AC0114CA7DD030F04F
:1019200082D020F031F49F3F11F41EF46BC00EF40E
:10193000E095E7FB53C0E92FB6D080F3BA176207F2
:1019400073078407950718F071F49EF5CEC00EF466
:10195000E0950B2EBA2FA02D0B01B90190010C01BF
:10196000CA01A0011124FF27591B99F0593F50F4D7
:10197000503E68F11A16F040A22F232F342F44272F
:10198000585FF3CF469537952795A795F040539527
:10199000C9F77EF41F16BA0B620B730B840BBAF0F7
:1019A0009150A1F0FF0FBB1F661F771F881FC2F762
:1019B0000EC0BA0F621F731F841F48F48795779576
:1019C0006795B795F7959E3F08F0B3CF9395880F2D
:1019D00008F09927EE0F97958795089597F99F67D7
:1019E00080E870E060E008959F3F31F0915020F46E
:1019F000879577956795B795880F911D96958795EB
:101A000097F908959FEF80EC089591505040660F2C
:101A1000771F881FD2F7089500240A941616170618
:101A200018060906089500240A94121613061406CF
:101A300005060895E7CF3FD0E8F3E894E0E0BB2740
:101A40009F57F0F02AED3FE049EC06C0EE0FBB0FC8
:101A5000661F771F881F28F0B23A62077307840752
:101A600028F0B25A620B730B840BE3959A9572F7C8
:101A7000803830F49A95BB0F661F771F881FD2F706
:101A80009048B4CFEF93E0FF06C0A2EA2AED3FE012
:101A900049EC5FEB50DF7EDE0F90039401FC905821
:101AA000E1E8F0E029C057FD9058440F551F59F068
:101AB0005F3F71F04795880F97FB991F61F09F3F3B
:101AC00079F087950895121613061406551FF2CF64
:101AD0004695F1DF08C0161617061806991FF1CFB4
:101AE00086957105610508940895E894BB276627DB
:101AF0007727CB0197F908959F938F937F936F93E7
:101B0000FF93EF939B01AC011DD9EF91FF911DDE77
:0E1B10002F913F914F915F9115C9F894FFCF2F
:101B1E0000000000000000000001020203030303A6
:101B2E00040404040404040405050505050505055F
:101B3E00050505050505050506060606060606063F
:101B4E000606060606060606060606060606060627
:101B5E00060606060606060607070707070707070F
:101B6E0007070707070707070707070707070707F7
:101B7E0007070707070707070707070707070707E7
:101B8E0007070707070707070707070707070707D7
:101B9E0007070707070707070808080808080808BF
:101BAE0008080808080808080808080808080808A7
:101BBE000808080808080808080808080808080897
:101BCE000808080808080808080808080808080887
:101BDE000808080808080808080808080808080877
:101BEE000808080808080808080808080808080867
:101BFE000808080808080808080808080808080857
:101C0E000808080808080808080808080808080846
:081C1E0008080808080808087E
:00000001FF
