:100000000C942A000C9434000C9434000C943400AA
:100010000C9434000C9434000C9434000C94340090
:100020000C9434000C9434000C9434000C94340080
:100030000C9434000C9434000C9434000C94340070
:100040000C9434000C9434000C9434000C94340060
:100050000C94340011241FBECFE5D4E0DEBFCDBF29
:100060000E9436000C9499000C9400008FEF81BB25
:1000700012BA1ABA8BBB80E287B987E886B9369A7A
:100080003699FECF85B18A3A10F0909A04C085B1B6
:10009000853A28F09098919A929A939AF0CF85B1E8
:1000A000803A18F0909A9198F7CF85B18B3918F073
:1000B000909A919A10C085B1833990F485B18C38AB
:1000C00098F585B1803510F0909A04C085B18634DA
:1000D00020F0909891989298E0CF85B18C3310F0F1
:1000E000909A04C085B1823318F09098919A0AC012
:1000F00085B1883210F0909A04C085B18E3120F01D
:1001000090989198929A13C085B1843110F0909A8A
:1001100004C085B18A3018F09098919A07C085B1D3
:10012000893010F0909A01C0909891989298939885
:06013000A6CFF894FFCFFA
:00000001FF
